:0400000007EF00F016
:100008007E825DED1CF042EF18F05EEC1BF0550EA1
:100018000B6E010E0C6E50EC1AF0550E0D6E010EA3
:100028000E6E030E0F6E02EC17F0550E126E010ED7
:10003800136E030E146EF20E156EFE0E166E17EC8E
:100048001CF0550E0D6E020E0E6E030E0F6E02ECB6
:1000580017F0550E126E020E136E030E146E670E15
:10006800156EFF0E166E17EC1CF00B0E4F6E260E5B
:100078004E6E5E0EE82EFED74E2EFCD74F2EFAD7C8
:10008800550E0B6E010E0C6E50EC1AF0010E026E3E
:10009800000E016E37EC1CF0FF0AD8A456EF00F0F2
:1000A80058EF00F0C9EF00F0550E0D6E010E0E6E00
:1000B800010E0F6E02EC17F0550E126E010E136E44
:1000C800010E146E870E156EFE0E166E17EC1CF0E0
:1000D8000B0E4F6E260E4E6E5E0EE82EFED74E2E7F
:1000E800FCD74F2EFAD7550E0B6E010E0C6E50EC46
:1000F8001AF0550E0D6E010E0E6E010E0F6E02EC0B
:1001080017F0550E126E010E136E010E146E410E8D
:10011800156EFF0E166E17EC1CF0010E426E020EE5
:10012800FAEC13F042C074F043C075F074C072F07A
:1001380075C073F0020E026E000E016E7350036EEE
:10014800C3EC1AF0020E026E010E016E72C003F0CB
:10015800C3EC1AF0010E026E000E016E000E036E63
:10016800C3EC1AF00B0E4F6E260E4E6E5E0EE82E86
:10017800FED74E2EFCD74F2EFAD7550E0B6E010E1A
:100188000C6E50EC1AF0EAEF00F0010E026E000E51
:10019800016E37EC1CF00009D8A4D5EF00F0D7EFBA
:1001A80000F0EAEF00F0020E026E000E016E37EC6E
:1001B8001CF0736E726A020E026E010E016E37EC4D
:1001C8001CF04E6E4E507226000E7322000E7D6E8D
:1001D800550E0D6E010E0E6E010E0F6E02EC17F02D
:1001E800550E126E010E136E010E146E9C0E156ED6
:1001F800FE0E166E17EC1CF0010E426E020EFAECA3
:1002080013F042C074F043C075F07450721807E1DF
:1002180075507318D8A413EF01F015EF01F03EEFF5
:1002280001F0010E7B6E550E0D6E030E0E6E010E63
:100238000F6E02EC17F0550E126E030E136E010EC0
:10024800146EBF0E156EFE0E166E17EC1CF00B0E1C
:100258004F6E260E4E6E5E0EE82EFED74E2EFCD743
:100268004F2EFAD7550E0B6E010E0C6E50EC1AF08D
:10027800BBEF01F0550E0D6E030E0E6E010E0F6EE4
:1002880002EC17F0550E126E030E136E010E146E6B
:10029800130E156EFF0E166E17EC1CF0550E126E2F
:1002A800040E136E010E146E7F0E156EFF0E166E81
:1002B80017EC1CF07D2A0B0E4F6E260E4E6E5E0E4E
:1002C800E82EFED74E2EFCD74F2EFAD7550E0B6EC2
:1002D800010E0C6E50EC1AF0020E7D6476EF01F000
:1002E80078EF01F0B3EF01F0550E0B6E010E0C6EB6
:1002F80050EC1AF0550E0D6E010E0E6E010E0F6EBB
:1003080002EC17F0550E126E010E136E010E146EEC
:10031800E10E156EFE0E166E17EC1CF0550E126EE1
:10032800020E136E010E146EAE0E156EFE0E166ED4
:1003380017EC1CF0650E096E8AEC17F0330E4F6E41
:10034800BB0E4E6EE00EE82EFED74E2EFCD74F2E7B
:10035800FAD7650E096EC9EC17F036EF01F0020EF8
:100368007D64B9EF01F0BBEF01F0ECEF00F07B0426
:10037800D8A4C1EF01F0C3EF01F0EAEF00F07B046D
:10038800D8A4C9EF01F0CBEF01F077EF05F0D180E9
:1003980004008F0ED316D18004008F0ED3165C0E86
:1003A800046E9E0E056E000E066E48EC19F0616E26
:1003B800610E106E1EEC0CF0610E046E13EC16F05C
:1003C800030E4F6E080E4E6E770EE82EFED74E2E99
:1003D800FCD74F2EFAD700009CEC13F07A6E7A0403
:1003E800D8A4F9EF01F0FBEF01F063EF02F0D19030
:1003F80046EC11F0626E550E0B6E010E0C6E50EC51
:100408001AF0550E0D6E010E0E6E010E0F6E02ECF7
:1004180017F0550E126E010E136E010E146EC20EF9
:10042800156EFF0E166E17EC1CF0550E126E040EAC
:10043800136E030E146EE60E156EFF0E166E17EC95
:100448001CF05C0E046E9E0E056E000E066E48ECE7
:1004580019F0616E610E106E1EEC0CF0610E046EE8
:1004680013EC16F0550E126E010E136E060E146E76
:10047800F60E156EFF0E166E17EC1CF0550E306E4C
:1004880061C031F0326A010E336E060E346EB5EC7F
:1004980016F0AE0E096E52EC12F0796E090E79184C
:1004A800D8A459EF02F05BEF02F025EF02F0550EE9
:1004B8000B6E010E0C6E50EC1AF0CFEF01F0020E2D
:1004C8007A18D8A46AEF02F06CEF02F042EF03F05A
:1004D800D1905C0E046E9E0E056E000E066E48EC02
:1004E80019F0616E610E106E1EEC0CF0610E046E58
:1004F80013EC16F0030E4F6E080E4E6E770EE82EB4
:10050800FED74E2EFCD74F2EFAD70000550E0B6E95
:10051800010E0C6E50EC1AF0550E0D6E010E0E6E9B
:10052800010E0F6E02EC17F0550E126E010E136ECF
:10053800010E146E730E156EFF0E166E17EC1CF07E
:10054800550E126E020E136E010E146E4E0E156EBF
:10055800FF0E166E17EC1CF0550E126E030E136E7E
:10056800010E146EE60E156EFF0E166E17EC1CF0DB
:10057800AE0E096E52EC12F0796E550E0D6E010E2C
:100588000E6E010E0F6E02EC17F05C0E046E9E0EDE
:10059800056E000E066E48EC19F0616E610E106E65
:1005A8001EEC0CF0610E046E13EC16F07904D8B44E
:1005B800E0EF02F0E2EF02F0F4EF02F0020E791839
:1005C800D8B4E9EF02F0EBEF02F0F4EF02F0090E15
:1005D8007918D8A4F2EF02F0F4EF02F0BCEF02F0C1
:1005E800550E0D6E040E0E6E010E0F6E02EC17F016
:1005F800550E306E79C031F0326A040E336E010E3A
:10060800346EB5EC16F0030E4F6E080E4E6E770E74
:10061800E82EFED74E2EFCD74F2EFAD70000550EE7
:10062800126E040E136E010E146EF80E156EFF0E88
:10063800166E17EC1CF0090E7918D8A426EF03F0F3
:1006480028EF03F02AEF03F0CFEF01F06350791899
:10065800FC0B7918636E5C0E046E9E0E056E000E20
:10066800066E48EC19F0616E610E106E1EEC0CF00F
:10067800610E046E13EC16F0BCEF02F0030E7A184C
:10068800D8A449EF03F04BEF03F021EF04F0D19029
:100698005C0E046E9E0E056E000E066E48EC19F098
:1006A800616E610E106E1EEC0CF0610E046E13ECA0
:1006B80016F0030E4F6E080E4E6E770EE82EFED71C
:1006C8004E2EFCD74F2EFAD70000550E0B6E010E9A
:1006D8000C6E50EC1AF0550E0D6E010E0E6E010EDA
:1006E8000F6E02EC17F0550E126E010E136E010E0E
:1006F800146E950E156EFF0E166E17EC1CF0550E47
:10070800126E020E136E010E146E8A0E156EFF0E17
:10071800166E17EC1CF0550E126E030E136E010EBA
:10072800146EE60E156EFF0E166E17EC1CF05C0EBE
:10073800046E9E0E056E000E066E48EC19F0616E92
:10074800610E046E13EC16F0AE0E096E52EC12F048
:10075800796E550E0D6E010E0E6E010E0F6E02ECC7
:1007680017F07904D8B4BBEF03F0BDEF03F0CFEF77
:1007780003F0020E7918D8B4C4EF03F0C6EF03F003
:10078800CFEF03F0090E7918D8A4CDEF03F0CFEF1F
:1007980003F09BEF03F0550E0D6E040E0E6E010E66
:1007A8000F6E02EC17F0550E306E79C031F0326AD8
:1007B800040E336E010E346EB5EC16F0030E4F6E58
:1007C800080E4E6E770EE82EFED74E2EFCD74F2E13
:1007D800FAD70000550E126E040E136E010E146E39
:1007E800F80E156EFF0E166E17EC1CF0090E791830
:1007F800D8A401EF04F003EF04F005EF04F0CFEF05
:1008080001F079C04EF04E464E4663504E18F30B39
:100818004E18636E5C0E046E9E0E056E000E066E1C
:1008280048EC19F0616E610E106E1EEC0CF0610E52
:10083800046E13EC16F09BEF03F0040E7A18D8A49C
:1008480028EF04F02AEF04F04FEF05F0D1905C0E8A
:10085800046E9E0E056E000E066E48EC19F0616E71
:10086800610E046E13EC16F0030E4F6E080E4E6EFA
:10087800770EE82EFED74E2EFCD74F2EFAD7000063
:10088800550E0B6E010E0C6E50EC1AF0550E0D6ED7
:10089800010E0E6E010E0F6E02EC17F0550E126E61
:1008A800010E136E010E146ED00E156EFE0E166E2E
:1008B80017EC1CF0550E0D6E010E0E6E010E0F6E2C
:1008C80002EC17F0550E126E020E136E010E146E26
:1008D8005B0E156EFF0E166E17EC1CF0550E126EA1
:1008E800030E136E010E146EB10E156EFF0E166E0A
:1008F80017EC1CF0550E126E040E136E0F0E146ECC
:10090800E00E156EFF0E166E17EC1CF05C0E046EF2
:100918009E0E056E000E066E48EC19F0616E610EB3
:10092800046E13EC16F0AE0E096E52EC12F0796EEE
:100938007928D8B4A2EF04F0A4EF04F041EF05F051
:100948007904D8A4AAEF04F0ACEF04F0DBEF04F0CC
:10095800550E0B6E010E0C6E50EC1AF0550E0D6E06
:10096800010E0E6E010E0F6E02EC17F0550E126E90
:10097800020E136E010E146ECA0E156EFF0E166E61
:1009880017EC1CF0060E4F6E130E4E6EAE0EE82ED0
:10099800FED74E2EFCD74F2EFAD76350CF0B100937
:1009A800636E610E106E1EEC0CF041EF05F0020E46
:1009B8007918D8A4E2EF04F0E4EF04F011EF05F0A1
:1009C800550E0B6E010E0C6E50EC1AF0550E0D6E96
:1009D800010E0E6E010E0F6E02EC17F0550E126E20
:1009E800020E136E010E146ECA0E156EFF0E166EF1
:1009F80017EC1CF0060E4F6E130E4E6EAE0EE82E60
:100A0800FED74E2EFCD74F2EFAD76350CF0B2009B6
:100A1800636E0F0E646E41EF05F0090E7918D8A4C5
:100A280018EF05F01AEF05F01CEF05F0CFEF01F015
:100A3800550E0B6E010E0C6E50EC1AF0550E0D6E25
:100A4800010E0E6E010E0F6E02EC17F0550E126EAF
:100A5800020E136E010E146E320E156EFF0E166E18
:100A680017EC1CF00B0E4F6E260E4E6E5E0EE82E27
:100A7800FED74E2EFCD74F2EFAD7610E106E1EEC05
:100A88000CF0550E0D6E010E0E6E010E0F6E02EC7F
:100A980017F02BEF04F0550E0D6E040E0E6E010EBE
:100AA8000F6E02EC17F0550E126E040E136E010E47
:100AB800146EA80E156EFF0E166E17EC1CF0060EBF
:100AC8004F6E130E4E6EAE0EE82EFED74E2EFCD78E
:100AD8004F2EFAD7550E0B6E010E0C6E50EC1AF015
:100AE800D190CFEF01F007EF00F0000E456E000E39
:100AF800466E000E476E000E486E4250D8B487EF1F
:100B080005F089EF05F0F0EF07F0ABEF07F0AC98D0
:100B1800B896AC944250D96EDA6ADECF43F0DDCF96
:100B280044F043C001F044C002F0036A046A000EB6
:100B38001EEC0EF001C013F002C014F003C015F053
:100B480004C016F0000E0F6E240E106EF40E116E17
:100B58004A0E126E51EC0AF00FC049F010C04AF06C
:100B680011C04BF012C04CF0000E136E000E146E44
:100B7800800E156E420E166E49C00FF04AC010F076
:100B88004BC011F04CC012F051EC0AF00FC028F025
:100B980010C029F011C02AF012C02BF0000E2C6EE4
:100BA800000E2D6E800E2E6EBF0E2F6EF1EC07F02C
:100BB80028C045F029C046F02AC047F02BC048F0AD
:100BC800D5EF07F0AC98B896AC844250D96EDA6A83
:100BD800DECF43F0DDCF44F043C001F044C002F063
:100BE800036A046A000E1EEC0EF001C013F002C086
:100BF80014F003C015F004C016F0000E0F6E240E9A
:100C0800106EF40E116E4A0E126E51EC0AF00FC0FF
:100C180049F010C04AF011C04BF012C04CF0000E61
:100C2800136E000E146E800E156E410E166E49C0BE
:100C38000FF04AC010F04BC011F04CC012F051EC4C
:100C48000AF00FC028F010C029F011C02AF012C015
:100C58002BF0000E2C6E000E2D6E800E2E6EBF0E29
:100C68002F6EF1EC07F028C045F029C046F02AC0E5
:100C780047F02BC048F0D5EF07F0AC98B886AC9495
:100C88004250D96EDA6ADECF43F0DDCF44F043C07C
:100C980001F044C002F0036A046A000E1EEC0EF074
:100CA80001C013F002C014F003C015F004C016F020
:100CB800000E0F6E240E106EF40E116E4A0E126E98
:100CC80051EC0AF00FC049F010C04AF011C04BF0C7
:100CD80012C04CF0000E136E000E146E800E156ECE
:100CE800410E166E49C00FF04AC010F04BC011F00B
:100CF8004CC012F051EC0AF00FC028F010C029F0D7
:100D080011C02AF012C02BF0000E2C6E000E2D6EB2
:100D1800800E2E6EBF0E2F6EF1EC07F028C045F046
:100D280029C046F02AC047F02BC048F0D5EF07F09D
:100D3800AC98B886AC844250D96EDA6ADECF43F0FC
:100D4800DDCF44F043C001F044C002F0036A046AF6
:100D5800000E1EEC0EF001C013F002C014F003C028
:100D680015F004C016F0000E0F6E240E106EF40E6F
:100D7800116E4A0E126E51EC0AF00FC049F010C005
:100D88004AF011C04BF012C04CF0000E136E000E6A
:100D9800146E800E156E400E166E49C00FF04AC0D4
:100DA80010F04BC011F04CC012F051EC0AF00FC01B
:100DB80028F010C029F011C02AF012C02BF0000E44
:100DC8002C6E000E2D6E800E2E6EBF0E2F6EF1EC67
:100DD80007F028C045F029C046F02AC047F02BC0CC
:100DE80048F0D5EF07F0AC88B8964250D96EDA6A69
:100DF800DECF43F0DDCF44F043C001F044C002F041
:100E0800036A046A000E1EEC0EF001C013F002C063
:100E180014F003C015F004C016F0000E0F6E240E77
:100E2800106EF40E116E4A0E126E51EC0AF00FC0DD
:100E380049F010C04AF011C04BF012C04CF0000E3F
:100E4800136E000E146E800E156E400E166E49C09D
:100E58000FF04AC010F04BC011F04CC012F051EC2A
:100E68000AF00FC028F010C029F011C02AF012C0F3
:100E78002BF0000E2C6E000E2D6E800E2E6EBF0E07
:100E88002F6EF1EC07F028C045F029C046F02AC0C3
:100E980047F02BC048F0D5EF07F0AC88B886425031
:100EA800D96EDA6ADECF43F0DDCF44F043C001F0FB
:100EB80044C002F0036A046A000E1EEC0EF001C082
:100EC80013F002C014F003C015F004C016F0000EB1
:100ED8000F6E240E106EF40E116E4A0E126E51EC47
:100EE8000AF00FC049F010C04AF011C04BF012C010
:100EF8004CF0000E136E000E146E800E156E400E30
:100F0800166E49C00FF04AC010F04BC011F04CC02B
:100F180012F051EC0AF00FC028F010C029F011C0EF
:100F28002AF012C02BF0000E2C6E000E2D6E800ED3
:100F38002E6EBF0E2F6EF1EC07F028C045F029C0C9
:100F480046F02AC047F02BC048F0D5EF07F04250D2
:100F5800D96EDA6A020ED926DF50436E446A4450CD
:100F6800000AD8B4BAEF07F0D5EF07F04350000AEB
:100F7800D8B48BEF05F0010AD8B4E6EF05F0030A00
:100F8800D8B441EF06F0010AD8B49CEF06F0070A7E
:100F9800D8B4F7EF06F0010AD8B451EF07F0D5EF4F
:100FA80007F045C038F046C039F047C03AF048C0AD
:100FB8003BF0CFEC11F03850AF6E45C038F046C06A
:100FC80039F047C03AF048C03BF0CFEC11F039C0D7
:100FD80038F0396A3850B06E12002B50800B346EDE
:100FE8002B502B24366E2AAEFCEF07F0FEEF07F0ED
:100FF800FFEF07F036803650D8B405EF08F007EF5A
:1010080008F01CEF08F03628D8A40DEF08F00FEF11
:1010180008F017EF08F0000E286E000E296E000E7B
:101028002A6E000E2B6E2A8E000E2B6E24EF08F00F
:10103800000E286E000E296E000E2A6E000E2B6E12
:101048002F50800B356E34503518D8B42EEF08F079
:1010580030EF08F031EF08F0348C2F502F24356E24
:101068002EAE39EF08F03BEF08F03CEF08F0358082
:101078003550D8B442EF08F044EF08F059EF08F0C3
:101088003528D8A44AEF08F04CEF08F054EF08F0E0
:10109800000E2C6E000E2D6E000E2E6E000E2F6EA2
:1010A8002E8E000E2F6E61EF08F0000E2C6E000ED3
:1010B8002D6E000E2E6E000E2F6E3650355CD8B099
:1010C80068EF08F06AEF08F091EF08F034AC6FEFC2
:1010D80008F071EF08F073EF08F0800E341A36C08C
:1010E80037F035C036F037C035F028C037F02CC09F
:1010F80028F037C02CF029C037F02DC029F037C0B0
:101108002DF02AC037F02EC02AF037C02EF02BC0A1
:1011180037F02FC02BF037C02FF0000E376E365047
:1011280035C030F0316A305E000E315A31BEA6EF5C
:1011380008F0315009E11A0E305CD8A0A6EF08F08B
:10114800A8EF08F0DFEF08F0285029102A102B101C
:10115800D8A4B1EF08F0B4EF08F0010EB5EF08F02D
:10116800000E376E000E286E000E296E000E2A6ED5
:10117800000E2B6E35C036F0E8EF08F037A0C7EF49
:1011880008F0C9EF08F0CFEF08F0D8903730010920
:10119800376ED1EF08F0D890373228A0D6EF08F094
:1011A800D8EF08F0D9EF08F0378E2B342B322A32DB
:1011B80029322832362A3550365CD8A0E6EF08F0B6
:1011C800E8EF08F0C2EF08F034BCEDEF08F0EFEFFD
:1011D80008F02FEF09F03650D8A4F5EF08F0F7EF34
:1011E80008F001EF09F0000E286E000E296E000EBF
:1011F8002A6E000E2B6E50EF0AF02C5028262D5028
:1012080029222E502A222F502B222BA00EEF09F034
:1012180010EF09F0BCEF09F037A015EF09F017EF50
:1012280009F01DEF09F0D89037300109376E1FEF2C
:1012380009F0D890373228A024EF09F026EF09F0FA
:1012480027EF09F0378E2B342B322A3229322832F5
:10125800362ABCEF09F02C50285C2D5029582E5006
:101268002A582B50800A306E2F50800A3058D8B038
:1012780040EF09F042EF09F06DEF09F028502C5CBF
:10128800306E29502D58316E2A502E58326E2B5000
:101298002F58336EFF0E3024286EFF0E3120296E32
:1012A800FF0E32202A6EFF0E33202B6E800E341A6A
:1012B800376C3750D8A463EF09F065EF09F075EF84
:1012C80009F0010E2826000E29222A222B2275EF6A
:1012D80009F02C50285E2D50295A2E502A5A2F508A
:1012E8002B5A285029102A102B10D8A47EEF09F069
:1012F80080EF09F0B5EF09F03750D8A486EF09F070
:1013080088EF09F0B5EF09F0000E286E000E296E7F
:10131800000E2A6E000E2B6E50EF0AF0D890283679
:1013280029362A362B3637AE9CEF09F09EEF09F0A6
:101338009FEF09F0288037A0A4EF09F0A6EF09F085
:10134800AAEF09F0D8803736ACEF09F0D8903736D5
:101358003650D8B4B2EF09F0B4EF09F0B5EF09F0A0
:1013680036062AAEBAEF09F0BCEF09F092EF09F0A1
:10137800000E356E37AEC3EF09F0C5EF09F0DDEFAB
:1013880009F037C030F07F0E3016D8B4CEEF09F030
:10139800D0EF09F0D4EF09F0010E356EDDEF09F05A
:1013A80028A0D9EF09F0DBEF09F0DDEF09F0D0EF65
:1013B80009F03550D8B4E3EF09F0E5EF09F010EF84
:1013C8000AF0010E2826000E29222A222B222BA001
:1013D800F0EF09F0F2EF09F010EF0AF028C030F052
:1013E80029C031F02AC032F02BC033F03334333205
:1013F80032323132303230C028F031C029F032C0B8
:101408002AF033C02BF03628D8B40DEF0AF00FEFCE
:101418000AF010EF0AF0362A3628D8B416EF0AF088
:1014280018EF0AF020EF0AF03650D8A41EEF0AF0A1
:1014380020EF0AF032EF0AF0000E286E000E296E37
:10144800000E2A6E000E2B6E3650D8A42EEF0AF02E
:1014580030EF0AF032EF0AF0000E346E36A037EFA4
:101468000AF039EF0AF03CEF0AF02A8E3DEF0AF055
:101478002A9ED89036302B6E34AE45EF0AF047EFEF
:101488000AF048EF0AF02B8E28C028F029C029F06E
:101498002AC02AF02BC02BF012001250800B1F6EAE
:1014A80012501224266E11AE5CEF0AF05EEF0AF0BD
:1014B8005FEF0AF026802650D8B465EF0AF067EF90
:1014C8000AF07CEF0AF02628D8A46DEF0AF06FEF37
:1014D8000AF077EF0AF0000E0F6E000E106E000E85
:1014E800116E000E126E118E000E126E84EF0AF04D
:1014F800000E0F6E000E106E000E116E000E126EB2
:101508001650800B1F1A16501624276E15AE8FEF33
:101518000AF091EF0AF092EF0AF027802750D8B42A
:1015280098EF0AF09AEF0AF0AFEF0AF02728D8A44C
:10153800A0EF0AF0A2EF0AF0AAEF0AF0000E136E6D
:10154800000E146E000E156E000E166E158E000E2F
:10155800166EB7EF0AF0000E136E000E146E000E32
:10156800156E000E166E1350141015101610D8A410
:10157800C0EF0AF0C2EF0AF0DAEF0AF0000E0F6EC1
:10158800000E106E000E116E000E126E800E1112FB
:101598007F0E12121F5012120FC00FF010C010F061
:1015A80011C011F012C012F01DEF0CF02650D8A493
:1015B800E0EF0AF0E2EF0AF0ECEF0AF0000E0F6E2F
:1015C800000E106E000E116E000E126E1DEF0CF064
:1015D800275026C017F0186A175E000E185A7F0E9B
:1015E8001724206E000E1820216E0FC01BF010C0AB
:1015F8001CF011C01DF012C01EF0000E0F6E000E80
:10160800106E000E116E000E126E000E226E000E8D
:10161800236E000E246E000E256E000E276E4DEF11
:101628000BF02750D8B41BEF0BF01DEF0BF034EF85
:101638000BF0D8901B361C361D361E36D8900F3648
:1016480010361136123625AE2CEF0BF02EEF0BF0BC
:101658002FEF0BF00F80D89022362336243625360C
:1016680013501B5C14501C5815501D5816501E580A
:10167800D8A041EF0BF043EF0BF04CEF0BF0258CAB
:1016880013501B5E14501C5A15501D5A16501E5AE2
:10169800272A190E276453EF0BF055EF0BF015EFBF
:1016A8000BF01B501C101D101E10D8B45EEF0BF071
:1016B80060EF0BF078EF0BF0228078EF0BF0D8900A
:1016C8000F3610361136123625AE6DEF0BF06FEF70
:1016D8000BF070EF0BF00F80D890223623362436AB
:1016E80025362006D8A0210611AE7DEF0BF07FEF3E
:1016F8000BF063EF0BF0000E276E25AE86EF0BF0B4
:1017080088EF0BF0ACEF0BF0FF0E2214176EFF0EF4
:101718002314186EFF0E2414196E7F0E25141A6EEA
:101728001750181019101A10D8B49DEF0BF09FEF2E
:101738000BF0A3EF0BF0010E276EACEF0BF00FA030
:10174800A8EF0BF0AAEF0BF0ACEF0BF09FEF0BF04C
:101758002750D8B4B2EF0BF0B4EF0BF0D8EF0BF082
:10176800010E0F26000E10221122122212A0BFEF26
:101778000BF0C1EF0BF0D8EF0BF00FC017F010C053
:1017880018F011C019F012C01AF01A341A321932AE
:101798001832173217C00FF018C010F019C011F026
:1017A8001AC012F0204A212A21BEE3EF0BF0215083
:1017B80008E12028D8A0E3EF0BF0E5EF0BF0F0EFFD
:1017C8000BF0000E216E2068000E0F6E000E106EDA
:1017D800000E116E000E126E21BEFDEF0BF02150AF
:1017E80006E12004D8B0FBEF0BF0FDEF0BF00BEF98
:1017F8000CF0000E216E000E206E000E0F6E000E13
:10180800106E000E116E000E126E000E1F6E20C0BC
:1018180026F026A012EF0CF014EF0CF017EF0CF0E6
:10182800118E18EF0CF0119ED8902630126ECEEF64
:101838000AF01200CB0E0C6E000E0D6E43EC1BF07E
:101848000CC011F00DC012F0125007E17C0E115CB3
:10185800D8B031EF0CF033EF0CF03CEF0CF0105037
:10186800D96EDA6A030ED926080EDF6E28EF0DF05E
:10187800125009E17C0E115CD8A045EF0CF047EF3F
:101888000CF05BEF0CF0125007E1F80E115CD8B0C9
:1018980050EF0CF052EF0CF05BEF0CF01050D96EDB
:1018A800DA6A030ED926070EDF6E28EF0DF0125004
:1018B80009E1F80E115CD8A064EF0CF066EF0CF0AB
:1018C8007AEF0CF0740E115C010E1258D8B06FEF5D
:1018D8000CF071EF0CF07AEF0CF01050D96EDA6A58
:1018E800030ED926060EDF6E28EF0DF0740E115C7C
:1018F800010E1258D8A083EF0CF085EF0CF099EF89
:101908000CF0F00E115C010E1258D8B08EEF0CF0EE
:1019180090EF0CF099EF0CF01050D96EDA6A030EC4
:10192800D926050EDF6E28EF0DF0F00E115C010EC2
:101938001258D8A0A2EF0CF0A4EF0CF0B8EF0CF0FE
:101948006C0E115C020E1258D8B0ADEF0CF0AFEF70
:101958000CF0B8EF0CF01050D96EDA6A030ED926E5
:10196800040EDF6E28EF0DF06C0E115C020E12589B
:10197800D8A0C1EF0CF0C3EF0CF0D7EF0CF0E80ED5
:10198800115C020E1258D8B0CCEF0CF0CEEF0CF070
:10199800D7EF0CF01050D96EDA6A030ED926030E71
:1019A800DF6E28EF0DF0E80E115C020E1258D8A079
:1019B800E0EF0CF0E2EF0CF0F6EF0CF0640E115CC7
:1019C800030E1258D8B0EBEF0CF0EDEF0CF0F6EF79
:1019D8000CF01050D96EDA6A030ED926020EDF6EAB
:1019E80028EF0DF0640E115C030E1258D8A0FFEF1B
:1019F8000CF001EF0DF015EF0DF0E00E115C030E89
:101A08001258D8B00AEF0DF00CEF0DF015EF0DF0ED
:101A18001050D96EDA6A030ED926010EDF6E28EF50
:101A28000DF0E00E115C030E1258D8A01EEF0DF059
:101A380020EF0DF028EF0DF01050D96EDA6A030E82
:101A4800D926DF6A28EF0DF012000C50D96EDA6A39
:101A5800DECFF6FFDDCFF7FFF86A0800F550250A5C
:101A6800D8A439EF0DF03BEF0DF00BEF0EF00C5052
:101A7800D96EDA6ADE2A000EDD22000E0001EC6F54
:101A8800000EEB6FEBC076F0ED69EE690C50D96E85
:101A9800DA6ADECF11F0DDCF12F011C0F6FF12C006
:101AA800F7FFF86A0800F550640AD8B45EEF0DF045
:101AB80060EF0DF06FEF0DF011C0F6FF12C0F7FFE9
:101AC800F86A0800F550690AD8A46DEF0DF06FEFB9
:101AD8000DF003EF0EF00D50D96EDA6A020EDF2614
:101AE800DF5CD96EDA6ADECF13F0DECF14F0010EB8
:101AF80011240E6E000E12200F6E0C50D96EDA6A89
:101B08000EC0DEFF0FC0DDFF200E176E14BE8FEF74
:101B18000DF092EF0DF0010E93EF0DF0000E106E28
:101B28001706000E1724D96EDA6A010EDA2213C0DE
:101B380001F014C002F0000E046E0A0E036EB6EC3B
:101B480014F001C007F002C008F078EC1BF0075051
:101B5800300FDF6E13C001F014C002F0000E046EE7
:101B68000A0E036E3AEC13F001C013F002C014F031
:101B780013501410D8B4C3EF0DF0C5EF0DF0CDEF2E
:101B88000DF01750D8A4CBEF0DF0CDEF0DF094EF7A
:101B98000DF01750D8B4D3EF0DF0D5EF0DF0F8EFE6
:101BA8000DF01050D8B4DBEF0DF0DDEF0DF0F8EFCD
:101BB8000DF01706000E1724D96EDA6A010EDA2224
:101BC8002D0EDF6EF8EF0DF0000E1724D96EDA6ACD
:101BD800010EDA22DF500E6E0E50016E026A0BC043
:101BE80003F0BEEC15F0172A200E1718D8A4FFEF43
:101BF8000DF001EF0EF0E8EF0DF01DEF0EF00C50B8
:101C0800D96EDA6ADE2A000EDD221DEF0EF00C50C6
:101C1800D96EDA6ADECFF6FFDDCFF7FFF86A080083
:101C2800F550016E026A0BC003F0BEEC15F003EF2D
:101C38000EF01200096E0950D8B425EF0EF027EF08
:101C48000EF049EF0EF004BE2EEF0EF02CEF0EF062
:101C580049EF0EF001C005F002C006F003C007F01E
:101C680004C008F0051E061E071E081E052A000EE1
:101C780006220722082205C00BF006C00CF007C098
:101C88000DF008C00EF051EF0EF001C00BF002C0CD
:101C98000CF003C00DF004C00EF001500210031048
:101CA8000410D8A45AEF0EF05CEF0EF066EF0EF0B9
:101CB800000E016E000E026E000E036E000E046E22
:101CC800F7EF0EF0960E0A6E70EF0EF00A2AD89013
:101CD8000E320D320C320B32000E0B14056E000E54
:101CE8000C14066E000E0D14076EFE0E0E14086E10
:101CF8000550061007100810D8A485EF0EF087EFDE
:101D08000EF06AEF0EF095EF0EF00A2A010E0B2680
:101D1800000E0C220D220E22D8900E320D320C32FB
:101D28000B32000E0B14056E000E0C14066E000E1E
:101D38000D14076EFF0E0E14086E055006100710DE
:101D48000810D8A4AAEF0EF0ACEF0EF089EF0EF051
:101D5800B4EF0EF00A06D8900B360C360D360E3658
:101D68000DBEB9EF0EF0BBEF0EF0C3EF0EF0020E92
:101D78000A60C1EF0EF0C3EF0EF0AEEF0EF00AB03E
:101D8800C8EF0EF0CAEF0EF0CBEF0EF00D9ED89014
:101D98000A320AC005F0066A076A086A05C008F030
:101DA800076A066A056A05500B1206500C1207509E
:101DB8000D1208500E120950D8B4E5EF0EF0E7EFF7
:101DC8000EF0EFEF0EF004BEEEEF0EF0ECEF0EF0BB
:101DD800EFEF0EF00E8E0BC001F00CC002F00DC03C
:101DE80003F00EC004F012000D50D96EDA6A010E2D
:101DF800D926DF30E832E832070B016E000E026E9A
:101E08000D50D96EDA6A010ED926DF50070B66EC41
:101E180015F00D50D96EDA6ADF30E832E832070B78
:101E2800016E000E026E0D50D96EDA6ADF50070B94
:101E380066EC15F00D50D96EDA6A020ED926DF303D
:101E4800E832E832070B016E000E026E0D50D96EB3
:101E5800DA6A020ED926DF50070B66EC15F00D5032
:101E6800D96EDA6A030ED926DF30E832E832070B7A
:101E7800016E000E026E0D50D96EDA6A030ED92675
:101E8800DF50070B66EC15F00D50D96EDA6A040EB8
:101E9800D926DF30E832E832070B016E000E026EF9
:101EA8000D50D96EDA6A040ED926DF50070B66EC9E
:101EB80015F00D50D96EDA6A050ED926DF30E832F2
:101EC800E832070B016E000E026E0D50D96EDA6A09
:101ED800050ED926DF50070B66EC15F00D50D96EAC
:101EE800DA6A060ED926DF30E832E832070B016ECF
:101EF800000E026E0D50D96EDA6A060ED926DF5032
:101F0800070B66EC15F0340E0E6EF20EE82EFED7B7
:101F18000E2EFCD70DC00BF0380E0C6E50EC1AF0DC
:101F28001A0E0E6EF80EE82EFED70E2EFCD700D035
:101F38000DC00BF0380E0C6E50EC1AF0640EE82E43
:101F4800FED70DC00BF0380E0C6E50EC1AF00DC019
:101F58000BF0010E0C6E50EC1AF00DC00BF0020ED7
:101F68000C6E50EC1AF00DC00BF0060E0C6E50EC17
:101F78001AF00DC00BF00E0E0C6E50EC1AF00DC0DE
:101F88000BF0280E0C6E50EC1AF00DC00BF0800E02
:101F98000C6E50EC1AF012000B6E0BC009F00946DB
:101FA8000946C2500918C30B0918C26E4FEF10F04A
:101FB800000E016E010E026E805066EC15F090EF77
:101FC80010F0010E016E010E026E805066EC15F0E5
:101FD80090EF10F0020E016E010E026E805066EC5A
:101FE80015F090EF10F0030E016E010E026E805096
:101FF80066EC15F090EF10F0050E016E010E026E02
:10200800805066EC15F0000E016E010E026E8450D1
:1020180066EC15F090EF10F0010E016E010E026EE5
:10202800845066EC15F090EF10F0020E016E010E70
:10203800026E845066EC15F090EF10F0020E016EFF
:10204800010E026E815066EC15F090EF10F0030E51
:10205800016E010E026E815066EC15F090EF10F0E3
:10206800010E016E010E026E815066EC15F090EFC4
:1020780010F0040E016E010E026E815066EC15F030
:1020880090EF10F0000E016E010E026E815066ECAA
:1020980015F090EF10F00B50096E0A6A0A50000A0A
:1020A800D8B459EF10F090EF10F00950000AD8B4E6
:1020B800DCEF0FF0010AD8B4E5EF0FF0030AD8B44B
:1020C800EEEF0FF0010AD8B4F7EF0FF0070AD8B413
:1020D80000EF10F0010AD8B407EF10F0030AD8B4E3
:1020E80010EF10F0010AD8B419EF10F00F0AD8B4A5
:1020F80022EF10F0010AD8B42BEF10F0030AD8B47D
:1021080034EF10F0010AD8B43DEF10F0070AD8B444
:1021180046EF10F090EF10F012004550D8B497EF4A
:1021280010F099EF10F045EF11F0C69A4550D96EAE
:10213800DA6A040ED926DFA0A4EF10F0A6EF10F09B
:10214800ACEF10F045C042F0CFEC12F0F0EF10F019
:102158004550D96EDA6A040ED926DFB0B6EF10F012
:10216800B8EF10F0F0EF10F0C688C69CC69E45C0C8
:1021780001F044EC1CF0C7EF10F0C59EE9EF10F039
:10218800C58EE9EF10F04550D96EDA6A040ED926EB
:10219800DFB6D1EF10F0D4EF10F0010ED5EF10F04C
:1021A800000E466E476A4750000AD8B4DEEF10F0BA
:1021B800E9EF10F04650000AD8B4C1EF10F0010A58
:1021C800D8B4C4EF10F0E9EF10F04550D96EDA6AD0
:1021D800030ED926DF50C86E94869488FAEF10F063
:1021E800C79C22EF11F0C78C22EF11F04550D96E31
:1021F800DA6A040ED926DFB404EF11F007EF11F004
:10220800010E08EF11F0000E466E476A4750000AAB
:10221800D8B411EF11F022EF11F04650000AD8B4EB
:10222800F4EF10F0010AD8B4F7EF10F022EF11F034
:10223800C78E44EF11F0C79E44EF11F04550D96E98
:10224800DA6A040ED926DFB22CEF11F02FEF11F065
:10225800010E30EF11F0000E466E476A4750000A33
:10226800D8B439EF11F044EF11F04650000AD8B451
:102278001FEF11F0010AD8B41CEF11F044EF11F070
:10228800C68A1200030E4C6E080E4B6E770EE82EAF
:10229800FED74B2EFCD74C2EFAD70000550E0B6EEE
:1022A800010E0C6E50EC1AF0550E0D6E010E0E6EEE
:1022B800010E0F6E02EC17F0550E126E010E136E22
:1022C800010E146E030E156EFF0E166E17EC1CF041
:1022D800550E126E020E136E080E146E430E156E16
:1022E80028EC1CF0010E426E020EFAEC13F042507C
:1022F8004D6E550E0B6E010E0C6E50EC1AF0550E0D
:102308000D6E010E0E6E020E0F6E02EC17F0550EDA
:10231800126E010E136E020E146EBA0E156EFF0EBB
:10232800166E17EC1CF0060E4C6E130E4B6EAE0EAE
:10233800E82EFED74B2EFCD74C2EFAD7550E0B6E37
:10234800010E0C6E50EC1AF0550E0D6E010E0E6E4D
:10235800030E0F6E02EC17F0550E126E010E136E7F
:10236800020E146EF10E156EFF0E166E17EC1CF0B1
:10237800060E4C6E130E4B6EAE0EE82EFED74B2E8D
:10238800FCD74C2EFAD7550E0B6E010E0C6E50EC86
:102398001AF04D5012003A343B34416E4150D8A4E3
:1023A800D8EF11F0DAEF11F0E4EF11F0000E386E0B
:1023B800000E396E000E3A6E000E3B6E51EF12F0B1
:1023C80038C03CF039C03DF03AC03EF03BC03FF069
:1023D800200EF4EF11F0D8903F323E323D323C32BD
:1023E800E82EEFEF11F03C50406E3A8EFF0E381693
:1023F800FF0E3916FF0E3A16000E3B16960E415E7A
:1024080041BE0BEF12F009EF12F021EF12F041502C
:10241800800A970FD8B013EF12F015EF12F017EFEC
:1024280012F0DAEF11F0D8903B323A3239323832C2
:10243800413E17EF12F039EF12F01F0E416427EFFB
:1024480012F029EF12F031EF12F0DAEF11F0D89014
:10245800383639363A363B3641064150D8A437EF3C
:1024680012F039EF12F02BEF12F04050D8B43FEFD2
:1024780012F041EF12F049EF12F03B1E3A1E391EDE
:10248800386C000E39223A223B2238C038F039C065
:1024980039F03AC03AF03BC03BF012000B68000E2E
:1024A8000E6E000E0D6E0D50020D0950F324D96EFC
:1024B800DA6A010ED926DF50016E000E026E0D5049
:1024C800020D0950F324D96EDA6ADF500EEC15F0CC
:1024D8000D2A030E0D6473EF12F075EF12F057EF2B
:1024E80012F00E50020D0950F324D96EDA6A010E6B
:1024F800D926DF50016E010E026E0E50020D0950F2
:10250800F324D96EDA6ADF500EEC15F01A0E0A6E53
:10251800F80EE82EFED70A2EFCD700D0000E0F6E5C
:102528000F50020D0950F324D96EDA6A090ED92624
:10253800DF50016E0F50020D0950F324D96EDA6A8C
:10254800080ED926DF5007EC1BF00C6E0C04D8A43B
:10255800B0EF12F0B2EF12F0BBEF12F00E50040D14
:10256800F350800F0F24D96EDA6ADF500B6E0F2AF2
:10257800030E0F64C2EF12F0C4EF12F094EF12F0E2
:102588000E2A030E0E64CBEF12F0CDEF12F055EFCA
:1025980012F00B5012004250D96EDA6A020ED92698
:1025A800DF50436EC6504318F00B4318C66E1FEF3A
:1025B80013F0000E2C6E000E2D6E800E2E6EBF0EC8
:1025C8002F6E4250D96EDA6ADECF43F0DDCF44F089
:1025D80043C001F044C002F0036A046A000E1EEC16
:1025E8000EF001C013F002C014F003C015F004C0CF
:1025F80016F0000E0F6E240E106EF40E116E490EBA
:10260800126E51EC0AF00FC028F010C029F011C06A
:102618002AF012C02BF0F1EC07F028C038F029C0DE
:1026280039F02AC03AF02BC03BF0CFEC11F038500B
:10263800C86E39EF13F04250D96EDA6A020ED92605
:10264800DF50436E446A4450000AD8B42EEF13F0AA
:1026580039EF13F04350080AD8B4DDEF12F0030A3B
:10266800D8B439EF13F039EF13F01200000E066EEC
:1026780004BE43EF13F041EF13F049EF13F0036C7E
:10268800041ED8B0042A010E066E02BE50EF13F0E5
:102698004EEF13F056EF13F0016C021ED8B0022A69
:1026A800010E061A000E086E000E076E0350041085
:1026B800D8B461EF13F063EF13F08BEF13F0010E52
:1026C800056E6BEF13F0D89003360436052A04AE76
:1026D80070EF13F072EF13F067EF13F0D89007362E
:1026E80008360350015C04500258D8A07EEF13F05E
:1026F80080EF13F085EF13F00350015E0450025A87
:102708000780D89004320332052E72EF13F006507A
:10271800D8B491EF13F093EF13F097EF13F0076C21
:10272800081ED8B0082A07C001F008C002F012003D
:10273800550E0B6E010E0C6E50EC1AF0550E0D6E08
:10274800010E0E6E030E0F6E02EC17F0550E126E90
:10275800010E136E030E146E230E156EFF0E166E09
:1027680017EC1CF0550E126E020E136E010E146E4D
:10277800D20E156EFF0E166E17EC1CF0550E126E6B
:10278800020E136E080E146ED90E156EFF0E166E1D
:1027980017EC1CF0550E126E020E136E100E146E0E
:1027A800EC0E156EFF0E166E17EC1CF0550E126E21
:1027B800030E136E010E146E9F0E156EFF0E166E2D
:1027C80017EC1CF0010E426E040EFAEC13F04250A6
:1027D8004B6E550E306E4BC031F0326A040E336EBC
:1027E800010E346EB5EC16F04B501200466E000E1A
:1027F800476E000E496E000E486EAE0E096E52EC22
:1028080012F04A6E4A28D8B40CEF14F00EEF14F008
:1028180001EF14F0630E4A18D8B415EF14F017EF4F
:1028280014F04AEF14F0040E47601DEF14F01FEF88
:1028380014F04AEF14F0030E456E080E446E770E3E
:10284800E82EFED7442EFCD7452EFAD7000048C004
:1028580001F049C002F0000E046E0A0E036EBDECD2
:102868001BF001C048F002C049F04A504826000E4B
:102878004922472A550E306E48C031F049C032F01F
:1028880046C033F042C034F0B5EC16F0630E4A1877
:10289800D8A451EF14F053EF14F001EF14F048C02E
:1028A80042F049C043F012000950D96EDA6A030EAB
:1028B800D926DF30E832E832070B016E0A50010BE7
:1028C800026E0950D96EDA6A030ED926DF50070B5B
:1028D8000EEC15F00950D96EDA6A040ED926DF30ED
:1028E800E832E832070B016ED8900A30010B026E0D
:1028F8000950D96EDA6A040ED926DF50070B0EECA0
:1029080015F00950D96EDA6A050ED926DF30E8329B
:10291800E832070B016E0A40E8423F0B010B026EDA
:102928000950D96EDA6A050ED926DF50070B0EEC6E
:1029380015F00950D96EDA6A060ED926DF30E8326A
:10294800E832070B016E0A38E8461F0B010B026ECE
:102958000950D96EDA6A060ED926DF50070B0EEC3D
:1029680015F01200000E066E02BEBFEF14F0BDEFA8
:1029780014F0C5EF14F0016C021ED8B0022A010E43
:10298800066E04BECCEF14F0CAEF14F0D0EF14F0CA
:10299800036C041ED8B0042A03500410D8B4D7EF2F
:1029A80014F0D9EF14F0FDEF14F0010E056EE1EF0D
:1029B80014F0D89003360436052A04AEE6EF14F076
:1029C800E8EF14F0DDEF14F00350015C04500258F6
:1029D800D8A0F1EF14F0F3EF14F0F7EF14F0035070
:1029E800015E0450025AD89004320332052EE8EFF3
:1029F80014F00650D8B403EF15F005EF15F009EF01
:102A080015F0016C021ED8B0022A01C001F002C004
:102A180002F01200086E50EF15F001C003F0010E2D
:102A2800046E032A1AEF15F0D8900436032E18EF17
:102A380015F00850020DF3509A0FD96EDA6ADECFFE
:102A480005F0DDCF06F005C0D9FF06C0DAFF045057
:102A5800DF1265EF15F001C003F0010E046E032AC2
:102A680038EF15F0D8900436032E36EF15F00450E1
:102A7800FF0A056E0850020DF3509A0FD96EDA6AF4
:102A8800DECF06F0DDCF07F006C0D9FF07C0DAFFBA
:102A98000550DF1665EF15F00250036E046A045006
:102AA800000AD8B45AEF15F065EF15F00350000A84
:102AB800D8B42FEF15F0010AD8B411EF15F065EF6F
:102AC80015F01200086EA8EF15F001C003F0010E12
:102AD800046E032A72EF15F0D8900436032E70EFB7
:102AE80015F00850020DF350A40FD96EDA6ADECF44
:102AF80005F0DDCF06F005C0D9FF06C0DAFF0450A7
:102B0800DF12BDEF15F001C003F0010E046E032AB9
:102B180090EF15F0D8900436032E8EEF15F0045080
:102B2800FF0A056E0850020DF350A40FD96EDA6A39
:102B3800DECF06F0DDCF07F006C0D9FF07C0DAFF09
:102B48000550DF16BDEF15F00250036E046A0450FD
:102B5800000AD8B4B2EF15F0BDEF15F00350000A23
:102B6800D8B487EF15F0010AD8B469EF15F0BDEFB6
:102B780015F012000350D8B4C4EF15F0C6EF15F0E5
:102B8800CEEF15F00350D8A4CCEF15F0CEEF15F02A
:102B9800D3EF15F0015062EC1CF012EF16F0035061
:102BA800D96EDA6A0A0ED926DE50DE10D8B4DFEF05
:102BB80015F0E1EF15F0FAEF15F00350D96EDA6A67
:102BC8000A0ED9260350E16EE26A030EE126DE50B2
:102BD800E65CE650800A086EDE50800A0858D8B0D5
:102BE800F8EF15F0FAEF15F012EF16F00350D96E62
:102BF800DA6A030ED926DF50046E0350D96EDA6AFA
:102C0800DF500424D96EDA6A01C0DFFF0350D96EA1
:102C1800DA6A030ED926DE2A000EDD22120004C06D
:102C280007F0040E086EAAEC19F05C0E016EF4ECC5
:102C38001BF0AAEC19F05C0E016E300E026ED5EC9A
:102C480019F0546E020E066E040E056EBA0EE82ECA
:102C5800FED7052EFCD7062EFAD700D0000E096E37
:102C680055EF16F0AAEC19F05C0E016E0750092416
:102C7800D96EDA6ADF50026ED5EC19F0546E1A0E6E
:102C8800056EF80EE82EFED7052EFCD700D0AAEC6C
:102C980019F0340E056EF20EE82EFED7052EFCD77D
:102CA800092A0850095CD8A05CEF16F05EEF16F010
:102CB80036EF16F0AAEC19F05C0E016EE2EC1BF090
:102CC800AAEC19F012000950D96EDA6A010ED92659
:102CD800DF50016E000E026E0950D96EDA6ADF50BD
:102CE80066EC15F09AEF16F00950D96EDA6A010E03
:102CF800D926DF50016E010E026E0950D96EDA6ACC
:102D0800DF500EEC15F0B4EF16F00950D96EDA6A00
:102D1800010ED926DF50016E000E026E0950D96EE1
:102D2800DA6ADF500EEC15F0B4EF16F00950D96EE0
:102D3800DA6A020ED926DF500A6E0B6A0B50000AB7
:102D4800D8B4A9EF16F0B4EF16F00A50000AD8B4B8
:102D580089EF16F0010AD8B478EF16F0B4EF16F040
:102D6800120020EE3BF0050EDE6AE806FDE220EEDA
:102D780035F0050EDE6AE806FDE2000E416E3B0EF8
:102D8800016E000E036E200E026E000E056E050E1B
:102D9800046E92EC1BF0000E406E350E1E6EFB0E9C
:102DA8001F6EFF0E206E31C021F032C022F027ECDA
:102DB8001BF0EAEF16F04150350FD96EDA6A415030
:102DC8003B0FE16EE26ADFCFE7FF412A4150350F42
:102DD800D96EDA6ADF50D8A4F4EF16F0F6EF16F0E1
:102DE800DFEF16F030C012F033C013F034C014F027
:102DF8003B0E156E166A17EC1CF012000F0629EF31
:102E080017F00DC00BF00F50800F0C6E50EC1AF03D
:102E180046EF17F00DC00BF00F50C00F0C6E50ECC2
:102E28001AF046EF17F00DC00BF00F50940F0C6E10
:102E380050EC1AF046EF17F00DC00BF00F50D40FFE
:102E48000C6E50EC1AF046EF17F00E50106E116A27
:102E58001150000AD8B433EF17F046EF17F01050AE
:102E6800010AD8B405EF17F0030AD8B40EEF17F02B
:102E7800010AD8B417EF17F0070AD8B420EF17F0F3
:102E880046EF17F01200000E0A6E0A50020D0950A4
:102E9800F324D96EDA6A010ED926DF50016E000ECE
:102EA800026E0A50020D0950F324D96EDA6ADF5017
:102EB80066EC15F00A2A030E0A6465EF17F067EF4F
:102EC80017F049EF17F0000E0B6E0B50020D09506A
:102ED800F324D96EDA6A090ED926DF50016E010E85
:102EE800026E0B50020D0950F324D96EDA6A080EEF
:102EF800D926DF5066EC15F00B2A030E0B6487EF1A
:102F080017F089EF17F069EF17F01200AEEF17F01E
:102F18000950D96EDA6A010ED926DF50016E000E0B
:102F2800026E0950D96EDA6ADF500EEC15F0C8EF60
:102F380017F00950D96EDA6A010ED926DF50016EF2
:102F4800010E026E0950D96EDA6ADF500EEC15F0E8
:102F5800C8EF17F00950D96EDA6A020ED926DF5089
:102F68000A6E0B6A0B50000AD8B4BDEF17F0C8EF11
:102F780017F00A50000AD8B49DEF17F0010AD8B428
:102F88008CEF17F0C8EF17F01200EDEF17F00950AB
:102F9800D96EDA6A010ED926DF50016E010E026E73
:102FA8000950D96EDA6ADF500EEC15F007EF18F009
:102FB8000950D96EDA6A010ED926DF50016E000E6B
:102FC800026E0950D96EDA6ADF500EEC15F007EF81
:102FD80018F00950D96EDA6A020ED926DF500A6E47
:102FE8000B6A0B50000AD8B4FCEF17F007EF18F083
:102FF8000A50000AD8B4DCEF17F0010AD8B4CBEFB6
:1030080017F007EF18F01200C2900C50D96EDA6A68
:10301800010ED926DF500D6E0D460D460D46C050E7
:103028000D18C70B0D18C06E0C50D96EDA6ADF5038
:103038000D6EC0500D18F80B0D18C06E0C50D96EDF
:10304800DA6A020ED926DF500D6E0D460D46C250C3
:103058000D18C30B0D18C26E0C50D96EDA6A020E29
:10306800D926DF50D0EC0FF00CC001F006EC1CF0B4
:103078000CC001F0AAEC1BF0C2801200500EF66ED4
:10308800340EF76E000EF86E00EE80F010EE4FF082
:103098000900F5CFEEFFE550E150FAE1A20EF66E19
:1030A800380EF76E000EF86E00EE50F010EE18F0C5
:1030B8000900F5CFEEFFE550E150FAE101EE00F02E
:1030C800200EEE6AE806FDE100EECFF0310EEE6A62
:1030D800E806FDE100EE68F0160EEE6AE806FDE18E
:1030E8007E907E92000109EF00F00150D8B47FEF86
:1030F80018F081EF18F0ACEF18F089EF18F0AB8CEE
:10310800ABEF18F0AB9CABEF18F00150D96EDA6A50
:10311800040ED926DFB293EF18F096EF18F0010EDF
:1031280097EF18F0000E026E036A0350000AD8B435
:10313800A0EF18F0ABEF18F00250000AD8B486EFF1
:1031480018F0010AD8B483EF18F0ABEF18F0AB8889
:1031580012000150D8B4B3EF18F0B5EF18F0E0EF53
:1031680018F0BDEF18F0AC8CDFEF18F0AC9CDFEF77
:1031780018F00150D96EDA6A030ED926DFB2C7EF0C
:1031880018F0CAEF18F0010ECBEF18F0000E026E1F
:10319800036A0350000AD8B4D4EF18F0DFEF18F030
:1031A8000250000AD8B4BAEF18F0010AD8B4B7EF41
:1031B80018F0DFEF18F0AC8A1200FBEF18F00DC022
:1031C8000BF00EC0F6FF0FC0F7FF000EF86E0F0EE3
:1031D800F76403D00800F55005D0F6CFE9FFF7CF24
:1031E800EAFFEF500C6E77EC1AF00E4A0F2A0EC069
:1031F800F6FF0FC0F7FF000EF86E0F0EF76403D04E
:103208000800F55005D0F6CFE9FFF7CFEAFFEF50F9
:103218000009D8A412EF19F014EF19F0E3EF18F031
:1032280012000950D96EDA6A020ED926DF30E83268
:10323800E832070B016E010E026E0950D96EDA6A88
:10324800020ED926DF50070B0EEC15F0060EE82EFD
:10325800FED700D00950D96EDA6A020ED926DF30BF
:10326800E832E832070B016E000E026E0950D96E83
:10327800DA6A020ED926DF50070B0EEC15F0060E9F
:10328800E82EFED700D01200000E076E0450D8B406
:1032980050EF19F052EF19F077EF19F004C001F070
:1032A800F4EC1BF004C001F005C002F0D5EC19F0F5
:1032B80004C001F006C002F0D5EC19F004C001F01A
:1032C800D0EC1BF004C001F00528026ED5EC19F013
:1032D80004C001F0000E026EFFEC19F0076E04C086
:1032E80001F0E2EC1BF0075012004D50D8B47FEF0C
:1032F80019F081EF19F0A9EF19F0948C948EAB9E18
:103308004DC042F079EC05F04D50D96EDA6A030EE3
:10331800D926DFA092EF19F094EF19F098EF19F081
:103328004DC001F0ADEC18F04D50D96EDA6A040EBC
:10333800D926DFA0A2EF19F0A4EF19F0A8EF19F031
:103348004DC001F079EC18F0AB8E1200C5B2AFEFAA
:1033580019F0B1EF19F0AAEF19F0C5B4B6EF19F0EA
:10336800B8EF19F0AAEF19F0C5B6BDEF19F0BFEF25
:1033780019F0AAEF19F0C5B8C4EF19F0C6EF19F0A3
:10338800AAEF19F0C7B0CBEF19F0CDEF19F0AAEFFB
:1033980019F0C7B4D2EF19F0D4EF19F0AAEF19F069
:1033A8001200C6AEDAEF19F0DCEF19F0DDEF19F014
:1033B800C69E000E036E0150D8B4E5EF19F0E7EF92
:1033C80019F0F5EF19F002C0C9FF9EA6EEEF19F04B
:1033D800F0EF19F0E9EF19F09E96000EC5BC010E4A
:1033E800036EC6AEFAEF19F0FCEF19F0FDEF19F015
:1033F800C69E035012000150D8B405EF1AF007EF2B
:103408001AF027EF1AF0C586C7A00DEF1AF00FEFD4
:103418001AF008EF1AF0C9CF03F00250D8A417EF3A
:103428001AF019EF1AF01CEF1AF0C59A26EF1AF0E5
:103438000204D8A422EF1AF024EF1AF026EF1AF0AB
:10344800C58AC588035012000708092F0405062AF3
:103458000102032D63003D2B800F810F820F830F24
:10346800840F890F8A0F8B0F8C0F8D0F920F930F7C
:10347800940F950F960F0100010101020103010449
:10348800010501060107020000204E010180250008
:073498000101000104000224
:1034A0000B50D96EDA6ADF30E832E832070B016E72
:1034B000000E026E0B50D96EDA6ADF50070B0EEC6D
:1034C00015F00BC009F00C380F0B0A6E58EC14F015
:1034D0000BC009F015EC19F00BC009F00CC00AF094
:1034E00058EC14F00BC009F015EC19F012000B5059
:1034F000D96EDA6ADF30E832E832070B016E010E6E
:10350000026E0B50D96EDA6ADF50070B0EEC15F025
:103510000BC009F00C380F0B0A6E58EC14F00BC0FE
:1035200009F015EC19F00BC009F00CC00AF058ECCA
:1035300014F00BC009F015EC19F012000150D96E0F
:10354000DA6A030ED926DFA2A8EF1AF0AAEF1AF062
:10355000B5EF1AF0C450046E036AC3500324016E21
:10356000000E0420026EC2EF1AF0C450036E046A0B
:10357000D89003360436D8900336043603C001F0E1
:1035800004C002F01200000EF2BE010E046E0250E2
:10359000030BAA6E01C0A9FF03C0A8FFA69EA69CAC
:1035A000A684F29E550EA76EAA0EA76EA682A6B29C
:1035B000DCEF1AF0DEEF1AF0D7EF1AF0A69404B0A1
:1035C00002D0F29E01D0F28E120019C01CF01AC077
:1035D0001DF0F3EF1AF018C00BF01C0E0C6E1BC0A0
:1035E0000DF029EC0DF01CC0F6FF1DC0F7FFF86AC6
:1035F0000800F5500009D8A400EF1BF002EF1BF003
:10360000EBEF1AF0000E196E000E186E1200066E27
:1036100001C002F00650020DF350900FD96EDA6A25
:10362000DECF03F0DDCF04F003C0D9FF04C0DAFF22
:10363000DF50056E022A1FEF1BF0D8900532022ED4
:103640001DEF1BF00550010B076E07501200210EF5
:10365000236E1EC024F0000E286E000E276E000E92
:103660002F6E000E2E6E240E186E1FC019F020C093
:103670001AF0230E1B6EE5EC1AF01E502724D96EAB
:10368000DA6ADF6A12000D50D0EC0FF00CC001F0C6
:1036900060EC1CF0C2B24FEF1BF051EF1BF04AEF91
:1036A0001BF00CC001F09EEC1AF001C00EF002C03D
:1036B0000FF00EC00CF00FC00DF01200550E0D6E85
:1036C000F8EC0EF0AE0E096E47EC17F0C50E4D6E1D
:1036D00079EC19F0650E096E67EC16F05C0E456E1C
:1036E00091EC10F0CB0E0C6E08EC18F0D19012009B
:1036F00008BE7DEF1BF07FEF1BF085EF1BF007C0CE
:1037000007F008C008F091EF1BF007C009F008C0EF
:103710000AF0091E0A1E094A0A2A09C007F00AC04F
:1037200008F0120001C006F09CEF1BF00650D96EA5
:10373000DA6A02C0DFFF062A0406D8A005060428BC
:1037400006E10528D8A4A7EF1BF0A9EF1BF096EF20
:103750001BF012000150D96EDA6A030ED926DFA0E1
:10376000B4EF1BF0B6EF1BF0BAEF1BF0C18AC188B3
:10377000BCEF1BF0C19AC198120001500302F3CFB5
:1037800005F0F4CF06F001500402F3500626025073
:103790000302F350062605C001F006C002F0120035
:1037A0000150D8B4D6EF1BF0D8EF1BF0E1EF1BF0BF
:1037B000C582C5B2DEEF1BF0E0EF1BF0D9EF1BF0C6
:1037C0009E9612000150D8B4E8EF1BF0EAEF1BF010
:1037D000F3EF1BF0C584C5B4F0EF1BF0F2EF1BF064
:1037E000EBEF1BF09E9612000150D8B4FAEF1BF0DD
:1037F000FCEF1BF005EF1CF0C580C5B002EF1CF01C
:1038000004EF1CF0FDEF1BF09E9612000150D96EE4
:10381000DA6A030ED926DFA210EF1CF012EF1CF0BB
:1038200015EF1CF0C08E16EF1CF0C09E120012C0E7
:103830000DF013C00EF014C00FF002EC17F012C020
:103840000DF015C00EF016C00FF0E1EC18F01200EC
:1038500012C00DF013C00EF014C00FF002EC17F000
:1038600012C00BF015C00CF077EC1AF012000250E9
:10387000030BAA6E01C0A9FFA69EA69CA684A680E3
:1038800000000000A85012000150D96EDA6A020E42
:10389000D926DF50026EC6500218F00B0218C66E11
:1038A00012000101010101030B13232B333BA086FE
:1038B000080003005A000002000106007E92110079
:0638C000C282120012009A
:10FE8600004C6F67696E20666F72206669727374C4
:10FE96002074696D6500456E7465722070617373B8
:10FEA600776F7264203A2000426C6F636B20666F36
:10FEB600722035207365632000436F727265637428
:10FEC6002070617373776F72640043686F6F736538
:10FED600206F7065726174696F6E00332077726F80
:10FEE6006E6720617474656D7074730057656C631A
:10FEF6006F6D6520746F20536D6172740053657465
:10FF06002054656D70657261747572650057726F05
:10FF16006E672070617373776F7264200043686F39
:10FF26006F7365206F7074696F6E2000496E76611D
:10FF36006C6964204E756D6265720053657420703D
:10FF4600617373776F726400322D436C6F73652033
:10FF5600446F6F7200312D4175746F6D6174696302
:10FF660000486F6D652053797374656D00312D4FB0
:10FF760070656E20446F6F720054727920616761FC
:10FF8600696E2000322D436C6F7365205456003124
:10FF96002D4F70656E20545600342D4C6967687479
:10FFA600730057726F6E6720496400322D4D616E83
:10FFB60075616C004C6F6164696E670054656D70A5
:10FFC600203A20004C6F6F64696E6700312D5465CE
:10FFD6006D7000322D446F6F7200392D52657400BA
:10FFE600395F52657400332D545600446F6E6500B8
:09FFF600202020200025690000F4
:020000040030CA
:0E000000FF021916FF0180FF0FC00FE00F4036
:00000001FF
