:0400000007EF00F016
:0A000800608285ED25F07DEF28F001
:101000000044617461205965742E2E2E2E20004EEE
:101010006F7420526563656976656420004C69676A
:10102000687473206F6E203A200054656D703A002A
:10103000446F6F723A00202020200046414E3A0053
:0F10400054563A004F4646002569004F4E0000B7
:10105000000E0101B36F000EB46F000EB56F000EED
:10106000B66FAF51B011D8B438EF08F03AEF08F0CE
:10107000C2EF0AF07AEF0AF0AC98B896AC94AFC120
:10108000D9FFB0C1DAFFDECFB1F1DDCFB2F1B1C12E
:1010900080F0B2C181F00001826B836B000E02EC24
:1010A0001BF080C092F081C093F082C094F083C0A6
:1010B00095F0000E00018E6F240E8F6FF40E906F6E
:1010C0004A0E916FCAEC13F08EC0B7F18FC0B8F121
:1010D00090C0B9F191C0BAF1000E0001926F000EFC
:1010E000936F800E946F420E956FB7C18EF0B8C1AA
:1010F0008FF0B9C190F0BAC191F0CAEC13F08EC074
:10110000A7F08FC0A8F090C0A9F091C0AAF0000E7F
:101110000001AB6F000EAC6F800EAD6FBF0EAE6FF7
:10112000C3EC0AF0A7C0B3F1A8C0B4F1A9C0B5F1EF
:10113000AAC0B6F1A5EF0AF0AC98B896AC84AFC1DE
:10114000D9FFB0C1DAFFDECFB1F1DDCFB2F1B1C16D
:1011500080F0B2C181F00001826B836B000E02EC63
:101160001BF080C092F081C093F082C094F083C0E5
:1011700095F0000E00018E6F240E8F6FF40E906FAD
:101180004A0E916FCAEC13F08EC0B7F18FC0B8F160
:1011900090C0B9F191C0BAF1000E0001926F000E3B
:1011A000936F800E946F410E956FB7C18EF0B8C1EA
:1011B0008FF0B9C190F0BAC191F0CAEC13F08EC0B3
:1011C000A7F08FC0A8F090C0A9F091C0AAF0000EBF
:1011D0000001AB6F000EAC6F800EAD6FBF0EAE6F37
:1011E000C3EC0AF0A7C0B3F1A8C0B4F1A9C0B5F12F
:1011F000AAC0B6F1A5EF0AF0AC98B886AC94AFC11E
:10120000D9FFB0C1DAFFDECFB1F1DDCFB2F1B1C1AC
:1012100080F0B2C181F00001826B836B000E02ECA2
:101220001BF080C092F081C093F082C094F083C024
:1012300095F0000E00018E6F240E8F6FF40E906FEC
:101240004A0E916FCAEC13F08EC0B7F18FC0B8F19F
:1012500090C0B9F191C0BAF1000E0001926F000E7A
:10126000936F800E946F410E956FB7C18EF0B8C129
:101270008FF0B9C190F0BAC191F0CAEC13F08EC0F2
:10128000A7F08FC0A8F090C0A9F091C0AAF0000EFE
:101290000001AB6F000EAC6F800EAD6FBF0EAE6F76
:1012A000C3EC0AF0A7C0B3F1A8C0B4F1A9C0B5F16E
:1012B000AAC0B6F1A5EF0AF0AC98B886AC84AFC16D
:1012C000D9FFB0C1DAFFDECFB1F1DDCFB2F1B1C1EC
:1012D00080F0B2C181F00001826B836B000E02ECE2
:1012E0001BF080C092F081C093F082C094F083C064
:1012F00095F0000E00018E6F240E8F6FF40E906F2C
:101300004A0E916FCAEC13F08EC0B7F18FC0B8F1DE
:1013100090C0B9F191C0BAF1000E0001926F000EB9
:10132000936F800E946F400E956FB7C18EF0B8C169
:101330008FF0B9C190F0BAC191F0CAEC13F08EC031
:10134000A7F08FC0A8F090C0A9F091C0AAF0000E3D
:101350000001AB6F000EAC6F800EAD6FBF0EAE6FB5
:10136000C3EC0AF0A7C0B3F1A8C0B4F1A9C0B5F1AD
:10137000AAC0B6F1A5EF0AF0AC88B896AFC1D9FF04
:10138000B0C1DAFFDECFB1F1DDCFB2F1B1C180F093
:10139000B2C181F00001826B836B000E02EC1BF086
:1013A00080C092F081C093F082C094F083C095F029
:1013B000000E00018E6F240E8F6FF40E906F4A0E98
:1013C000916FCAEC13F08EC0B7F18FC0B8F190C026
:1013D000B9F191C0BAF1000E0001926F000E936F47
:1013E000800E946F400E956FB7C18EF0B8C18FF02C
:1013F000B9C190F0BAC191F0CAEC13F08EC0A7F059
:101400008FC0A8F090C0A9F091C0AAF0000E000112
:10141000AB6F000EAC6F800EAD6FBF0EAE6FC3EC46
:101420000AF0A7C0B3F1A8C0B4F1A9C0B5F1AAC031
:10143000B6F1A5EF0AF0AC88B886AFC1D9FFB0C14C
:10144000DAFFDECFB1F1DDCFB2F1B1C180F0B2C1D0
:1014500081F00001826B836B000E02EC1BF080C0F8
:1014600092F081C093F082C094F083C095F0000E9A
:1014700000018E6F240E8F6FF40E906F4A0E916FE5
:10148000CAEC13F08EC0B7F18FC0B8F190C0B9F1BB
:1014900091C0BAF1000E0001926F000E936F800EA2
:1014A000946F400E956FB7C18EF0B8C18FF0B9C17F
:1014B00090F0BAC191F0CAEC13F08EC0A7F08FC0C3
:1014C000A8F090C0A9F091C0AAF0000E0001AB6F87
:1014D000000EAC6F800EAD6FBF0EAE6FC3EC0AF0A6
:1014E000A7C0B3F1A8C0B4F1A9C0B5F1AAC0B6F1C4
:1014F000A5EF0AF020EE02F0AF51D926B051DA2262
:10150000DF50B16FB26BB251000AD8B48AEF0AF063
:10151000A5EF0AF0B151000AD8B43CEF08F0010A77
:10152000D8B49CEF08F0030AD8B4FCEF08F0010A25
:10153000D8B45CEF09F0070AD8B4BCEF09F0010A8F
:10154000D8B41BEF0AF0A5EF0AF0B3C1E4F0B4C1C0
:10155000E5F0B5C1E6F0B6C1E7F00AEC1EF0000117
:10156000E451AF6EB3C1E4F0B4C1E5F0B5C1E6F04B
:10157000B6C1E7F00AEC1EF00001E5C0E4F0E56B4F
:10158000E451B06E12000001AA51800BB36FAA5152
:10159000AA25B56FA9AFCFEF0AF0D1EF0AF0D2EFCD
:1015A0000AF0B581B551D8B4D8EF0AF0DAEF0AF0F5
:1015B000EFEF0AF0B529D8A4E0EF0AF0E2EF0AF065
:1015C000EAEF0AF0000EA76F000EA86F000EA96FD9
:1015D000000EAA6FA98F000EAA6FF7EF0AF0000E97
:1015E000A76F000EA86F000EA96F000EAA6FAE5174
:1015F000800BB46FB351B419D8B401EF0BF003EF03
:101600000BF004EF0BF0B38DAE51AE25B46FADAF60
:101610000CEF0BF00EEF0BF00FEF0BF0B481B451A9
:10162000D8B415EF0BF017EF0BF02CEF0BF0B4293B
:10163000D8A41DEF0BF01FEF0BF027EF0BF0000EFF
:10164000AB6F000EAC6F000EAD6F000EAE6FAD8FC6
:10165000000EAE6F34EF0BF0000EAB6F000EAC6FF0
:10166000000EAD6F000EAE6FB551B45DD8B03BEF5C
:101670000BF03DEF0BF064EF0BF0B3AD42EF0BF06E
:1016800044EF0BF046EF0BF0800EB31BB5C0B6F085
:10169000B4C0B5F0B6C0B4F0A7C0B6F0ABC0A7F008
:1016A000B6C0ABF0A8C0B6F0ACC0A8F0B6C0ACF005
:1016B000A9C0B6F0ADC0A9F0B6C0ADF0AAC0B6F0F2
:1016C000AEC0AAF0B6C0AEF0000EB66FB551B4C051
:1016D000AFF0B06BAF5F000EB05BB0BF79EF0BF057
:1016E000B05109E11A0EAF5DD8A079EF0BF07BEF96
:1016F0000BF0B2EF0BF0A751A811A911AA11D8A4B1
:1017000084EF0BF087EF0BF0010E88EF0BF0000E6B
:10171000B66F000EA76F000EA86F000EA96F000E27
:10172000AA6FB4C0B5F0BBEF0BF0B6A19AEF0BF007
:101730009CEF0BF0A2EF0BF0D890B6310109B66F19
:10174000A4EF0BF0D890B633A7A1A9EF0BF0ABEF45
:101750000BF0ACEF0BF0B68FAA35AA33A933A83340
:10176000A733B52BB451B55DD8A0B9EF0BF0BBEFE3
:101770000BF095EF0BF0B3BDC0EF0BF0C2EF0BF029
:1017800002EF0CF0B551D8A4C8EF0BF0CAEF0BF084
:10179000D4EF0BF0000EA76F000EA86F000EA96F1C
:1017A000000EAA6F23EF0DF0AB51A727AC51A82371
:1017B000AD51A923AE51AA23AAA1E1EF0BF0E3EFAB
:1017C0000BF08FEF0CF0B6A1E8EF0BF0EAEF0BF0A7
:1017D000F0EF0BF0D890B6310109B66FF2EF0BF0D5
:1017E000D890B633A7A1F7EF0BF0F9EF0BF0FAEFB3
:1017F0000BF0B68FAA35AA33A933A833A733B52B7C
:101800008FEF0CF0AB51A75DAC51A859AD51A95960
:10181000AA51800AAF6FAE51800AAF59D8B013EF0A
:101820000CF015EF0CF040EF0CF0A751AB5DAF6F73
:10183000A851AC59B06FA951AD59B16FAA51AE5969
:10184000B26FFF0EAF25A76FFF0EB021A86FFF0E7E
:10185000B121A96FFF0EB221AA6F800EB31BB66D26
:10186000B651D8A436EF0CF038EF0CF048EF0CF07E
:10187000010EA727000EA823A923AA2348EF0CF0E6
:10188000AB51A75FAC51A85BAD51A95BAE51AA5B50
:10189000A751A811A911AA11D8A451EF0CF053EF28
:1018A0000CF088EF0CF0B651D8A459EF0CF05BEFB8
:1018B0000CF088EF0CF0000EA76F000EA86F000E62
:1018C000A96F000EAA6F23EF0DF0D890A737A837A5
:1018D000A937AA37B6AF6FEF0CF071EF0CF072EFCB
:1018E0000CF0A781B6A177EF0CF079EF0CF07DEF4B
:1018F0000CF0D880B6377FEF0CF0D890B637B551E2
:10190000D8B485EF0CF087EF0CF088EF0CF0B5073A
:10191000A9AF8DEF0CF08FEF0CF065EF0CF0000E1F
:10192000B46FB6AF96EF0CF098EF0CF0B0EF0CF090
:10193000B6C0AFF07F0EAF17D8B4A1EF0CF0A3EF95
:101940000CF0A7EF0CF0010EB46FB0EF0CF0A7A1F4
:10195000ACEF0CF0AEEF0CF0B0EF0CF0A3EF0CF02E
:10196000B451D8B4B6EF0CF0B8EF0CF0E3EF0CF0D4
:10197000010EA727000EA823A923AA23AAA1C3EF1B
:101980000CF0C5EF0CF0E3EF0CF0A7C0AFF0A8C06F
:10199000B0F0A9C0B1F0AAC0B2F0B235B233B133E1
:1019A000B033AF33AFC0A7F0B0C0A8F0B1C0A9F05A
:1019B000B2C0AAF0B529D8B4E0EF0CF0E2EF0CF019
:1019C000E3EF0CF0B52BB529D8B4E9EF0CF0EBEF51
:1019D0000CF0F3EF0CF0B551D8A4F1EF0CF0F3EFED
:1019E0000CF005EF0DF0000EA76F000EA86F000EB3
:1019F000A96F000EAA6FB551D8A401EF0DF003EF47
:101A00000DF005EF0DF0000EB36FB5A10AEF0DF06C
:101A10000CEF0DF00FEF0DF0A98F10EF0DF0A99F57
:101A2000D890B531AA6FB3AF18EF0DF01AEF0DF0E3
:101A30001BEF0DF0AA8FA7C0A7F0A8C0A8F0A9C0FF
:101A4000A9F0AAC0AAF012000450800B0D6E045039
:101A500004240F6E03AE2FEF0DF031EF0DF032EFD7
:101A60000DF00F800F50D8B438EF0DF03AEF0DF0B5
:101A70004FEF0DF00F28D8A440EF0DF042EF0DF01E
:101A80004AEF0DF0000E016E000E026E000E036EA6
:101A9000000E046E038E000E046E57EF0DF0000E64
:101AA000016E000E026E000E036E000E046E0850F2
:101AB000800B0E6E0D500E18D8B461EF0DF063EF71
:101AC0000DF064EF0DF00D8C085008240E6E07AE7B
:101AD0006CEF0DF06EEF0DF06FEF0DF00E800E500D
:101AE000D8B475EF0DF077EF0DF08CEF0DF00E28F8
:101AF000D8A47DEF0DF07FEF0DF087EF0DF0000E15
:101B0000056E000E066E000E076E000E086E078E44
:101B1000000E086E94EF0DF0000E056E000E066EBE
:101B2000000E076E000E086E0F500E5CD8B09BEFD3
:101B30000DF09DEF0DF0C4EF0DF00DACA2EF0DF028
:101B4000A4EF0DF0A6EF0DF0800E0D1A0FC010F0EF
:101B50000EC00FF010C00EF001C010F005C001F073
:101B600010C005F002C010F006C002F010C006F070
:101B700003C010F007C003F010C007F004C010F05D
:101B800008C004F010C008F0000E106E0F500EC018
:101B900009F00A6A095E000E0A5A0ABED9EF0DF072
:101BA0000A5009E11A0E095CD8A0D9EF0DF0DBEF5D
:101BB0000DF012EF0EF00150021003100410D8A423
:101BC000E4EF0DF0E7EF0DF0010EE8EF0DF0000E81
:101BD000106E000E016E000E026E000E036E000EFF
:101BE000046E0EC00FF01BEF0EF010A0FAEF0DF018
:101BF000FCEF0DF002EF0EF0D89010300109106EDE
:101C000004EF0EF0D890103201A009EF0EF00BEFA8
:101C10000EF00CEF0EF0108E043404320332023258
:101C200001320F2A0E500F5CD8A019EF0EF01BEFF7
:101C30000EF0F5EF0DF00DBC20EF0EF022EF0EF0E0
:101C400062EF0EF00F50D8A428EF0EF02AEF0EF03E
:101C500034EF0EF0000E016E000E026E000E036EE9
:101C6000000E046E83EF0FF005500126065002228D
:101C7000075003220850042204A041EF0EF043EF66
:101C80000EF0EFEF0EF010A048EF0EF04AEF0EF05E
:101C900050EF0EF0D89010300109106E52EF0EF098
:101CA000D890103201A057EF0EF059EF0EF05AEF16
:101CB0000EF0108E043404320332023201320F2A45
:101CC000EFEF0EF00550015C065002580750035824
:101CD0000450800A096E0850800A0958D8B073EF82
:101CE0000EF075EF0EF0A0EF0EF00150055C096EDE
:101CF000025006580A6E035007580B6E04500858DD
:101D00000C6EFF0E0924016EFF0E0A20026EFF0EFC
:101D10000B20036EFF0E0C20046E800E0D1A106C4B
:101D20001050D8A496EF0EF098EF0EF0A8EF0EF03A
:101D3000010E0126000E022203220422A8EF0EF05B
:101D40000550015E0650025A0750035A0850045AC3
:101D50000150021003100410D8A4B1EF0EF0B3EF3D
:101D60000EF0E8EF0EF01050D8A4B9EF0EF0BBEF74
:101D70000EF0E8EF0EF0000E016E000E026E000E87
:101D8000036E000E046E83EF0FF0D890013602361A
:101D90000336043610AECFEF0EF0D1EF0EF0D2EFD7
:101DA0000EF0018010A0D7EF0EF0D9EF0EF0DDEFAE
:101DB0000EF0D8801036DFEF0EF0D89010360F50AE
:101DC000D8B4E5EF0EF0E7EF0EF0E8EF0EF00F06F7
:101DD00003AEEDEF0EF0EFEF0EF0C5EF0EF0000EDC
:101DE0000E6E10AEF6EF0EF0F8EF0EF010EF0FF0F3
:101DF00010C009F07F0E0916D8B401EF0FF003EF01
:101E00000FF007EF0FF0010E0E6E10EF0FF001A0B4
:101E10000CEF0FF00EEF0FF010EF0FF003EF0FF0DD
:101E20000E50D8B416EF0FF018EF0FF043EF0FF08D
:101E3000010E0126000E02220322042204A023EF39
:101E40000FF025EF0FF043EF0FF001C009F002C0D3
:101E50000AF003C00BF004C00CF00C340C320B324F
:101E60000A32093209C001F00AC002F00BC003F0C7
:101E70000CC004F00F28D8B440EF0FF042EF0FF081
:101E800043EF0FF00F2A0F28D8B449EF0FF04BEFB4
:101E90000FF053EF0FF00F50D8A451EF0FF053EFA6
:101EA0000FF065EF0FF0000E016E000E026E000ED7
:101EB000036E000E046E0F50D8A461EF0FF063EFB5
:101EC0000FF065EF0FF0000E0D6E0FA06AEF0FF030
:101ED0006CEF0FF06FEF0FF0038E70EF0FF0039EBB
:101EE000D8900F30046E0DAE78EF0FF07AEF0FF050
:101EF0007BEF0FF0048E01C001F002C002F003C0BE
:101F000003F004C004F01200000E00018F6F8FC0B8
:101F100080F0030E44EC2BF00009D8A492EF0FF0F0
:101F200094EF0FF096EF0FF0594A5A2A00018F2BC9
:101F3000070E8F659EEF0FF0A0EF0FF087EF0FF009
:101F40008C51D96EDA6A020ED926DF38030BE80607
:101F5000D8A4ADEF0FF0AFEF0FF0A2EF11F0010E2C
:101F6000376E6CEF11F0FD0E886F896BA4EC26F0D4
:101F7000FA0E0001886F896BA4EC26F0F70E0001C1
:101F8000886F896BA4EC26F0F40E0001886F896BD2
:101F9000A4EC26F0F10E0001886F896BA4EC26F00A
:101FA000EE0E0001886F896BA4EC26F0460E00014E
:101FB000886F896BA4EC26F0430E0001886F896B53
:101FC000A4EC26F0B3EF11F0FD0E886F896B5FEC87
:101FD00026F0FA0E0001886F896BA4EC26F0F70E4C
:101FE0000001886F896BA4EC26F0F40E0001886F65
:101FF000896BA4EC26F0F10E0001886F896BA4ECCC
:1020000026F0EE0E0001886F896BA4EC26F0460ED8
:102010000001886F896BA4EC26F0430E0001886FE5
:10202000896BA4EC26F0B3EF11F0FD0E886F896B7D
:102030005FEC26F0FA0E0001886F896B5FEC26F0EA
:10204000F70E0001886F896BA4EC26F0F40E0001F6
:10205000886F896BA4EC26F0F10E0001886F896B04
:10206000A4EC26F0EE0E0001886F896BA4EC26F03C
:10207000460E0001886F896BA4EC26F0430E000128
:10208000886F896BA4EC26F0B3EF11F0FD0E886F1A
:10209000896B5FEC26F0FA0E0001886F896B5FECAC
:1020A00026F0F70E0001886F896B5FEC26F0F40EC6
:1020B0000001886F896BA4EC26F0F10E0001886F97
:1020C000896BA4EC26F0EE0E0001886F896BA4ECFE
:1020D00026F0460E0001886F896BA4EC26F0430EB3
:1020E0000001886F896BA4EC26F0B3EF11F0FD0EB0
:1020F000886F896B5FEC26F0FA0E0001886F896BA0
:102100005FEC26F0F70E0001886F896B5FEC26F01C
:10211000F40E0001886F896B5FEC26F0F10E000170
:10212000886F896BA4EC26F0EE0E0001886F896B36
:10213000A4EC26F0460E0001886F896BA4EC26F013
:10214000430E0001886F896BA4EC26F0B3EF11F009
:10215000FD0E886F896B5FEC26F0FA0E0001886F28
:10216000896B5FEC26F0F70E0001886F896B5FECDE
:1021700026F0F40E0001886F896B5FEC26F0F10EFB
:102180000001886F896B5FEC26F0EE0E0001886F0E
:10219000896BA4EC26F0460E0001886F896BA4ECD5
:1021A00026F0430E0001886F896BA4EC26F0B3EF94
:1021B00011F0FD0E886F896B5FEC26F0FA0E0001BE
:1021C000886F896B5FEC26F0F70E0001886F896BD2
:1021D0005FEC26F0F40E0001886F896B5FEC26F04F
:1021E000F10E0001886F896B5FEC26F0EE0E0001A6
:1021F000886F896B5FEC26F0460E0001886F896B53
:10220000A4EC26F0430E0001886F896BA4EC26F045
:10221000B3EF11F0FD0E886F896B5FEC26F0FA0EBC
:102220000001886F896B5FEC26F0F70E0001886F64
:10223000896B5FEC26F0F40E0001886F896B5FEC10
:1022400026F0F10E0001886F896B5FEC26F0EE0E30
:102250000001886F896B5FEC26F0460E0001886FE5
:10226000896B5FEC26F0430E0001886F896BA4EC4C
:1022700026F0B3EF11F0FD0E886F896B5FEC26F04E
:10228000FA0E0001886F896B5FEC26F0F70E0001F3
:10229000886F896B5FEC26F0F40E0001886F896B04
:1022A0005FEC26F0F10E0001886F896B5FEC26F081
:1022B000EE0E0001886F896B5FEC26F0430E000183
:1022C000886F896B5FEC26F0460E0001886F896B82
:1022D0005FEC26F0B3EF11F08C51D96EDA6A030E81
:1022E000D926DF508D6F8E6B8E51000AD8B47BEFEC
:1022F00011F0B3EF11F08D51000AD8B4B3EF0FF025
:10230000010AD8B4E4EF0FF0030AD8B415EF10F0C7
:10231000010AD8B446EF10F0070AD8B477EF10F0EE
:10232000010AD8B4A8EF10F0030AD8B4D9EF10F01E
:10233000010AD8B40AEF11F00F0AD8B43BEF11F03C
:10234000B3EF11F08C51D96EDA6A020ED926DF385C
:10235000030B020AD8A4AFEF11F0B1EF11F0B3EF05
:1023600011F0020E376E12000001C251800BCB6FCC
:10237000C251C225D16FC1AFC0EF11F0C2EF11F051
:10238000C3EF11F0D181D151D8B4C9EF11F0CBEF27
:1023900011F0DEEF11F0D129D8A4D1EF11F0D3EF75
:1023A00011F0DBEF11F0000EBF6F000EC06F000EDA
:1023B000C16F000EC26FC18FE6EF11F0000EBF6F4C
:1023C000000EC06F000EC16F000EC26FC651800BB1
:1023D000CB1BC651C625CC6FC5AFF1EF11F0F3EFA3
:1023E00011F0F4EF11F0CC81CC51D8B4FAEF11F028
:1023F000FCEF11F00FEF12F0CC29D8A402EF12F08D
:1024000004EF12F00CEF12F0000EC36F000EC46F59
:10241000000EC56F000EC66FC58F17EF12F0000ECD
:10242000C36F000EC46F000EC56F000EC66FCC5197
:10243000D8B41DEF12F01FEF12F027EF12F0D151B8
:10244000D8A425EF12F027EF12F031EF12F0000EB2
:10245000BF6F000EC06F000EC16F000EC26FC9EFDC
:1024600013F0C551BF03F3CFD6F0F4CFD7F0D65158
:10247000CD6FCE6BCF6BD06BD751D26FD36BD46B8C
:10248000D56BC451C003F3CFD6F0F4CFD7F0D651FB
:10249000CD27000ECE23CF23D023D751D227000E35
:1024A000D323D423D523C351C103F3CFD6F0F4CF24
:1024B000D7F0D651CD27000ECE23CF23D023D7512E
:1024C000D227000ED323D423D523CFC0D0F0CEC043
:1024D000CFF0CDC0CEF0CD6BC351C003F3CFD6F05B
:1024E000F4CFD7F0D651CD27D751CE23000ECF232E
:1024F000000ED023C451BF03F3CFD6F0F4CFD7F0F2
:10250000D651CD27D751CE23000ECF23000ED02396
:10251000CFC0D0F0CEC0CFF0CDC0CEF0CD6BC35188
:10252000BF03F3CFD6F0F4CFD7F0D651CD27D75194
:10253000CE23000ECF23000ED023C551C003F3CF0E
:10254000D6F0F4CFD7F0D651D227D751D323000EEF
:10255000D423000ED523C451C103F3CFD6F0F4CF5A
:10256000D7F0D651D227D751D323000ED423000E53
:10257000D523C551C103F3CFD6F0F4CFD7F0D65150
:10258000C76FD751C86FC96BCA6BC9C0CAF0C8C082
:10259000C9F0C7C0C8F0C76BC751D227C851D323F1
:1025A000C951D423CA51D523CDC0C7F0CEC0C8F07D
:1025B000CFC0C9F0D0C0CAF0190EE4EF12F0D89025
:1025C000CA33C933C833C733E82EDFEF12F0C7511F
:1025D000D227C851D323C951D423CA51D523CFC040
:1025E000D0F0CEC0CFF0CDC0CEF0CD6BCC51D1C0AD
:1025F000C7F0C86BC727000EC823820EC725D66F49
:10260000FF0EC821D76F1AEF13F0D890D237D33707
:10261000D437D537D0AF0FEF13F011EF13F012EF1F
:1026200013F0D281D890CD37CE37CF37D037D607F9
:10263000D8A0D707D4AF1FEF13F021EF13F005EFA9
:1026400013F0000ECC6FD0AF28EF13F02AEF13F089
:102650004EEF13F0FF0ECD15C76FFF0ECE15C86FEE
:10266000FF0ECF15C96F7F0ED015CA6FC751C811A5
:10267000C911CA11D8B43FEF13F041EF13F045EF81
:1026800013F0010ECC6F4EEF13F0D2A14AEF13F00E
:102690004CEF13F04EEF13F041EF13F0CC51D8B4E0
:1026A00054EF13F056EF13F07AEF13F0010ED22728
:1026B000000ED323D423D523D5A161EF13F063EF0C
:1026C00013F07AEF13F0D2C0C7F0D3C0C8F0D4C073
:1026D000C9F0D5C0CAF0CA35CA33C933C833C73305
:1026E000C7C0D2F0C8C0D3F0C9C0D4F0CAC0D5F0BA
:1026F000D64BD72BD7BF85EF13F0D75108E1D6299A
:10270000D8A085EF13F087EF13F091EF13F0000ED0
:10271000D26F000ED36F800ED46F7F0ED56FBFEFD8
:1027200013F0D7BF9EEF13F0D75106E1D605D8B00E
:102730009CEF13F09EEF13F0AAEF13F0000ED26F90
:10274000000ED36F000ED46F000ED56F000ECB6F4E
:10275000BFEF13F0D6C0D1F0FF0ED217FF0ED31784
:102760007F0ED417000ED517D1A1B9EF13F0BBEF30
:1027700013F0BCEF13F0D48FD890D131D56FCB517B
:10278000D513D2C0BFF0D3C0C0F0D4C0C1F0D5C003
:10279000C2F0120000019151800B9E6F9151912562
:1027A000A56F90AFD6EF13F0D8EF13F0D9EF13F079
:1027B000A581A551D8B4DFEF13F0E1EF13F0F6EFE8
:1027C00013F0A529D8A4E7EF13F0E9EF13F0F1EF28
:1027D00013F0000E8E6F000E8F6F000E906F000EC4
:1027E000916F908F000E916FFEEF13F0000E8E6FC1
:1027F000000E8F6F000E906F000E916F9551800B41
:102800009E1B95519525A66F94AF09EF14F00BEF21
:1028100014F00CEF14F0A681A651D8B412EF14F006
:1028200014EF14F029EF14F0A629D8A41AEF14F02D
:102830001CEF14F024EF14F0000E926F000E936F53
:10284000000E946F000E956F948F000E956F31EF10
:1028500014F0000E926F000E936F000E946F000E36
:10286000956F9251931194119511D8A43AEF14F0E9
:102870003CEF14F054EF14F0000E8E6F000E8F6FCB
:10288000000E906F000E916F800E90137F0E9113CB
:102890009E5191138EC08EF08FC08FF090C090F03B
:1028A00091C091F097EF15F0A551D8A45AEF14F00C
:1028B0005CEF14F066EF14F0000E8E6F000E8F6F59
:1028C000000E906F000E916F97EF15F0A651A5C006
:1028D00096F0976B965F000E975B7F0E96259F6F25
:1028E000000E9721A06F8EC09AF08FC09BF090C011
:1028F0009CF091C09DF0000E8E6F000E8F6F000E49
:10290000906F000E916F000EA16F000EA26F000E6F
:10291000A36F000EA46F000EA66FC7EF14F0A651B0
:10292000D8B495EF14F097EF14F0AEEF14F0D89000
:102930009A379B379C379D37D8908E378F37903793
:102940009137A4AFA6EF14F0A8EF14F0A9EF14F09C
:102950008E81D890A137A237A337A43792519A5DC0
:1029600093519B5994519C5995519D59D8A0BBEFB7
:1029700014F0BDEF14F0C6EF14F0A48D92519A5FDD
:1029800093519B5B94519C5B95519D5BA62B190EBB
:10299000A665CDEF14F0CFEF14F08FEF14F09A513D
:1029A0009B119C119D11D8B4D8EF14F0DAEF14F0FC
:1029B000F2EF14F0A181F2EF14F0D8908E378F3738
:1029C00090379137A4AFE7EF14F0E9EF14F0EAEF96
:1029D00014F08E81D890A137A237A337A4379F0770
:1029E000D8A0A00790AFF7EF14F0F9EF14F0DDEFE7
:1029F00014F0000EA66FA4AF00EF15F002EF15F073
:102A000026EF15F0FF0EA115966FFF0EA215976F1A
:102A1000FF0EA315986F7F0EA415996F965197110D
:102A200098119911D8B417EF15F019EF15F01DEFA3
:102A300015F0010EA66F26EF15F08EA122EF15F00E
:102A400024EF15F026EF15F019EF15F0A651D8B4C4
:102A50002CEF15F02EEF15F052EF15F0010E8E272A
:102A6000000E8F239023912391A139EF15F03BEFB6
:102A700015F052EF15F08EC096F08FC097F090C011
:102A800098F091C099F099359933983397339633EC
:102A900096C08EF097C08FF098C090F099C091F0DA
:102AA0009F4BA02BA0BF5DEF15F0A05108E19F291F
:102AB000D8A05DEF15F05FEF15F06AEF15F0000E8E
:102AC000A06F9F69000E8E6F000E8F6F000E906FCB
:102AD000000E916FA0BF77EF15F0A05106E19F05A2
:102AE000D8B075EF15F077EF15F085EF15F0000E03
:102AF000A06F000E9F6F000E8E6F000E8F6F000E86
:102B0000906F000E916F000E9E6F9FC0A5F0A5A163
:102B10008CEF15F08EEF15F091EF15F0908F92EF8E
:102B200015F0909FD890A531916F48EF14F01200E6
:102B3000BDC08CF0010E00018D6F010E8E6F19EC7F
:102B400026F0BDC091F0010E0001926F010E936F4F
:102B50002A0E946F9451D8A4100E956FA3EC2CF00C
:102B6000BDC08CF0010E00018D6F060E8E6F19EC4A
:102B700026F0BDC0AAF00001BC51D96EDA6ADF5060
:102B8000BE6FBE51AB6FAC6B010EAD6F060EAE6F7C
:102B900037EC25F0BDC08CF0010E00018D6F0C0EDE
:102BA0008E6F19EC26F0BDC091F0010E0001926FFE
:102BB0000C0E936F400E946F9451D8A4100E956F25
:102BC000A3EC2CF00001BC51D96EDA6A020ED926B2
:102BD000DF30E832030BE806D8A4F1EF15F0F3EF8D
:102BE00015F01BEF16F0BDC08CF0010E8D6F0F0EAF
:102BF0008E6F19EC26F0BDC091F0010E0001926FAE
:102C00000F0E936F360E946F9451D8A4100E956FDB
:102C1000A3EC2CF0BDC091F0010E0001926F0F0EDD
:102C2000936F4B0E946F9451D8A4100E956FA3EC34
:102C30002CF042EF16F0BC51D96EDA6A020ED9269A
:102C4000DF30E832030B020AD8A429EF16F02BEF8D
:102C500016F042EF16F0BDC08CF0010E8D6F0F0E16
:102C60008E6F19EC26F0BDC091F0010E0001926F3D
:102C70000F0E936F440E946F9451D8A4100E956F5D
:102C8000A3EC2CF0BDC08CF0020E00018D6F010E84
:102C90008E6F19EC26F0BDC091F0020E0001926F0C
:102CA000010E936F300E946F9451D8A4100E956F4F
:102CB000A3EC2CF0BDC08CF0020E00018D6F060E4F
:102CC0008E6F19EC26F00001BC51D96EDA6A020E43
:102CD000D926DF50030BE806D8A471EF16F073EF86
:102CE00016F092EF16F0BDC091F0020E926F060E34
:102CF000936F360E946F9451D8A4100E956FA3EC79
:102D00002CF0BDC091F0020E0001926F060E936F81
:102D10004B0E946F9451D8A4100E956FA3EC2CF029
:102D2000A9EF16F0BDC08CF0020E8D6F060E8E6FEF
:102D300019EC26F0BDC091F0020E0001926F060E54
:102D4000936F440E946F9451D8A4100E956FA3EC1A
:102D50002CF0380E00018C6F040E8D6F010E8E6FFB
:102D600019EC26F0380E0001916F040E926F010EDF
:102D7000936F3B0E946F9451D8A4100E956FA3ECF3
:102D80002CF0380E00018C6F040E8D6F050E8E6FC7
:102D900019EC26F00001BC51D96EDA6ABC51E16E23
:102DA000E26A010EE126DE50E65CD8B0DAEF16F0FA
:102DB000DCEF16F0FBEF16F0380E916F040E926FF9
:102DC000050E936F370E946F9451D8A4100E956F23
:102DD000A3EC2CF0380E0001916F040E926F050EDB
:102DE000936F4B0E946F9451D8A4100E956FA3EC73
:102DF0002CF009EF17F0380E916F040E926F050E4C
:102E0000936F440E946F9451D8A4100E956FA3EC59
:102E10002CF0380E00018C6F030E8D6F010E8E6F3B
:102E200019EC26F0380E0001916F030E926F010E1F
:102E3000936F1D0E946F9451D8A4100E956FA3EC50
:102E40002CF0380E00018C6F030E8D6F010E8E6F0B
:102E500019EC26F0380E0001AA6F59C0ABF05AC029
:102E6000ACF0030EAD6F0E0EAE6F37EC25F0000E1A
:102E70005A6E000E596E1200EFEC2CF00D6E020E21
:102E80003718D8A446EF17F048EF17F038EF18F0CE
:102E9000610E0D18D8A44FEF17F051EF17F058EF4F
:102EA00017F0FD0E096E0A6A2EEC27F066EF17F098
:102EB000410E0D18D8A45FEF17F061EF17F066EF21
:102EC00017F0FD0E096E0A6A72EC27F0620E0D18FB
:102ED000D8A46DEF17F06FEF17F076EF17F0FA0E3A
:102EE000096E0A6A2EEC27F084EF17F0420E0D18D7
:102EF000D8A47DEF17F07FEF17F084EF17F0FA0EEC
:102F0000096E0A6A72EC27F0630E0D18D8A48BEFD5
:102F100017F08DEF17F094EF17F0F70E096E0A6AAD
:102F20002EEC27F0A2EF17F0430E0D18D8A49BEF5C
:102F300017F09DEF17F0A2EF17F0F70E096E0A6A6F
:102F400072EC27F0640E0D18D8A4A9EF17F0ABEFC0
:102F500017F0B2EF17F0F40E096E0A6A2EEC27F0A4
:102F6000C0EF17F0440E0D18D8A4B9EF17F0BBEF5F
:102F700017F0C0EF17F0F40E096E0A6A72EC27F032
:102F8000650E0D18D8A4C7EF17F0C9EF17F0D0EFF2
:102F900017F0F10E096E0A6A2EEC27F0DEEF17F03B
:102FA000450E0D18D8A4D7EF17F0D9EF17F0DEEFC4
:102FB00017F0F10E096E0A6A72EC27F0660E0D1812
:102FC000D8A4E5EF17F0E7EF17F0EEEF17F0EE0EED
:102FD000096E0A6A2EEC27F0FCEF17F0460E0D186A
:102FE000D8A4F5EF17F0F7EF17F0FCEF17F0EE0E9F
:102FF000096E0A6A72EC27F0670E0D18D8A403EF69
:1030000018F005EF18F00CEF18F0460E096E0A6A7A
:103010002EEC27F01AEF18F0470E0D18D8A413EF76
:1030200018F015EF18F01AEF18F0460E096E0A6A3C
:1030300072EC27F0680E0D18D8A421EF18F023EFDA
:1030400018F02AEF18F0430E096E0A6A2EEC27F0EA
:1030500038EF18F0480E0D18D8A431EF18F033EF00
:1030600018F038EF18F0430E096E0A6A72EC27F078
:10307000120047EF18F0B196B18C06EF19F0B18647
:10308000B19C06EF19F0B196B19C06EF19F0000162
:1030900020EE02F08851D9268951DA22DF30030B65
:1030A0008A6F8B6B8B51000AD8B459EF18F006EF7A
:1030B00019F08A51000AD8B443EF18F0010AD8B4C5
:1030C0003FEF18F0030AD8B43BEF18F006EF19F001
:1030D000020E806F000E816F020E04EC22F08FEF63
:1030E00018F0BD50F00B0809BD6E29EF19F0BD5066
:1030F000F00B0909BD6E29EF19F0BD50F00B0A095C
:10310000BD6E29EF19F0BD50F00B0B09BD6E29EF14
:1031100019F0BD50F00B0209BD6E29EF19F0000146
:1031200020EE01F08851D9268951DA22DF508A6FCA
:103130008B6B8B51000AD8B4A0EF18F029EF19F06F
:103140008A51020AD8B489EF18F00A0AD8B471EF8C
:1031500018F0010AD8B477EF18F0030AD8B47DEF5D
:1031600018F0010AD8B483EF18F029EF19F0010E16
:10317000806F000E816F020E04EC22F0DEEF18F07B
:10318000BA50F00B0809BA6E29EF19F0BA50F00BDB
:103190000909BA6E29EF19F0BA50F00B0A09BA6E94
:1031A00029EF19F0BA50F00B0B09BA6E29EF19F09C
:1031B000BA50F00B0209BA6E29EF19F0000120EEA7
:1031C00001F08851D9268951DA22DF508A6F8B6B42
:1031D0008B51000AD8B4EFEF18F029EF19F08A519B
:1031E000020AD8B4D8EF18F00A0AD8B4C0EF18F021
:1031F000010AD8B4C6EF18F0030AD8B4CCEF18F01F
:10320000010AD8B4D2EF18F029EF19F020EE02F03D
:103210008851D9268951DA22DFB011EF19F014EF65
:1032200019F0010E15EF19F0000E8A6F8B6B8B51A0
:10323000000AD8B41EEF19F029EF19F08A51000ADC
:10324000D8B468EF18F0010AD8B4B7EF18F029EF36
:1032500019F0120000018B51D96EDA6ADFCFF6FF48
:10326000100EF76EF86A0800F550250AD8A43BEF57
:1032700019F03DEF19F004EF1AF08B51D96EDA6AAC
:10328000DF2A000E01013D6F000E3C6F3CC15BF078
:103290003E693F6900018B51D96EDA6ADF508F6F4A
:1032A0008FC0F6FF100EF76EF86A0800F550640A3A
:1032B000D8B45DEF19F05FEF19F06EEF19F08FC021
:1032C000F6FF100EF76EF86A0800F550690AD8A4E8
:1032D0006CEF19F06EEF19F0FDEF19F08C51D96E0B
:1032E000DA6A020EDF26DF5CD96EDA6ADECF90F092
:1032F000DECF91F08B51D96EDA6A8F29DF6E200E06
:10330000946F91BF86EF19F089EF19F0010E8AEFE3
:1033100019F0000E8E6F9407000E9425D96EDA6AAC
:10332000010EDA2290C080F091C081F0000E836F10
:103330000A0E826FDAEC23F080C086F081C087F03D
:1033400042EC2CF000018651300FDF6E90C080F00F
:1033500091C081F0000E836F0A0E826FDDEC20F0C9
:1033600080C090F081C091F0000190519111D8B4CB
:10337000BCEF19F0BEEF19F0C6EF19F09451D8A4C4
:10338000C4EF19F0C6EF19F08BEF19F09451D8B4CF
:10339000CCEF19F0CEEF19F0F2EF19F08E51D8B44E
:1033A000D4EF19F0D6EF19F0F2EF19F09407000EF0
:1033B0009425D96EDA6A010EDA222D0EDF6EF2EF55
:1033C00019F0000E9425D96EDA6A010EDA22DF5068
:1033D0008D6F8D51806F816B8AC082F0E1EC24F09B
:1033E0000001942B200E9419D8A4F9EF19F0FBEFEB
:1033F00019F0E1EF19F016EF1AF000018B51D96EB8
:10340000DA6ADF2A16EF1AF08B51D96EDA6ADFCF4B
:10341000F6FF100EF76EF86A0800F550806F816BAA
:103420008AC082F0E1EC24F0FDEF19F012000001F7
:103430008C51D96EDA6A010ED926DF30E832E832D3
:10344000070B806F000E816F8C51D96EDA6A010E06
:10345000D926DF50070B04EC22F000018C51D96E05
:10346000DA6ADF30E832E832070B806F000E816FD6
:103470008C51D96EDA6ADF50070B04EC22F00001A0
:103480008C51D96EDA6A020ED926DF30E832E83282
:10349000070B806F000E816F8C51D96EDA6A020EB5
:1034A000D926DF50070B04EC22F000018C51D96EB5
:1034B000DA6A030ED926DF30E832E832070B806F74
:1034C000000E816F8C51D96EDA6A030ED926DF5057
:1034D000070B04EC22F000018C51D96EDA6A040E5D
:1034E000D926DF30E832E832070B806F000E816F9B
:1034F0008C51D96EDA6A040ED926DF50070B04EC22
:1035000022F000018C51D96EDA6A050ED926DF301F
:10351000E832E832070B806F000E816F8C51D96E54
:10352000DA6A050ED926DF50070B04EC22F0000101
:103530008C51D96EDA6A060ED926DF30E832E832CD
:10354000070B806F000E816F8C51D96EDA6A060E00
:10355000D926DF50070B04EC22F0340E00018D6FEA
:10356000F10EE82EFED78D2FFCD700D08CC08AF04C
:10357000380E00018B6F80EC2AF01A0E00018D6F5F
:10358000F80EE82EFED78D2FFCD700008CC08AF0F5
:10359000380E00018B6F80EC2AF0640EE82EFED707
:1035A0008CC08AF0380E00018B6F80EC2AF08CC042
:1035B0008AF0010E00018B6F80EC2AF08CC08AF03B
:1035C000020E00018B6F80EC2AF08CC08AF0060E90
:1035D00000018B6F80EC2AF08CC08AF00C0E000189
:1035E0008B6F80EC2AF08CC08AF0280E00018B6F64
:1035F00080EC2AF08CC08AF0800E00018B6F80EC8A
:103600002AF012000001886F00018851D8B40BEF36
:103610001BF00DEF1BF02FEF1BF083BF14EF1BF01F
:1036200012EF1BF02FEF1BF080C084F081C085F0FB
:1036300082C086F083C087F0841F851F861F871F86
:10364000842B000E85238623872384C08AF085C0BF
:103650008BF086C08CF087C08DF037EF1BF080C0F8
:103660008AF081C08BF082C08CF083C08DF08051D5
:10367000811182118311D8A440EF1BF042EF1BF09F
:103680004CEF1BF0000E806F000E816F000E826FFA
:10369000000E836FDDEF1BF0960E896F56EF1BF067
:1036A000892BD8908D338C338B338A33000E8A1557
:1036B000846F000E8B15856F000E8C15866FFE0EC5
:1036C0008D15876F8451851186118711D8A46BEFF2
:1036D0001BF06DEF1BF050EF1BF07BEF1BF0892B05
:1036E000010E8A27000E8B238C238D23D8908D33D7
:1036F0008C338B338A33000E8A15846F000E8B1542
:10370000856F000E8C15866FFF0E8D15876F8451A7
:10371000851186118711D8A490EF1BF092EF1BF052
:103720006FEF1BF09AEF1BF08907D8908A378B3721
:103730008C378D378CBF9FEF1BF0A1EF1BF0A9EFEB
:103740001BF0020E8961A7EF1BF0A9EF1BF094EFAD
:103750001BF089B1AEEF1BF0B0EF1BF0B1EF1BF027
:103760008C9FD890893389C084F0856B866B876B7A
:1037700084C087F0866B856B846B84518A13855176
:103780008B1386518C1387518D138851D8B4CBEF8E
:103790001BF0CDEF1BF0D5EF1BF083BFD4EF1BF078
:1037A000D2EF1BF0D5EF1BF08D8F8AC080F08BC05D
:1037B00081F08CC082F08DC083F01200096E095038
:1037C000D8B4E5EF1BF0E7EF1BF009EF1CF004BEE7
:1037D000EEEF1BF0ECEF1BF009EF1CF001C005F061
:1037E00002C006F003C007F004C008F0051E061E64
:1037F000071E081E052A000E06220722082205C001
:103800000BF006C00CF007C00DF008C00EF011EF71
:103810001CF001C00BF002C00CF003C00DF004C09E
:103820000EF00150021003100410D8A41AEF1CF07F
:103830001CEF1CF026EF1CF0000E016E000E026E55
:10384000000E036E000E046EB7EF1CF0960E0A6EAB
:1038500030EF1CF00A2AD8900E320D320C320B32A7
:10386000000E0B14056E000E0C14066E000E0D14E7
:10387000076EFE0E0E14086E055006100710081095
:10388000D8A445EF1CF047EF1CF02AEF1CF055EFD1
:103890001CF00A2A010E0B26000E0C220D220E220D
:1038A000D8900E320D320C320B32000E0B14056E16
:1038B000000E0C14066E000E0D14076EFF0E0E1493
:1038C000086E0550061007100810D8A46AEF1CF007
:1038D0006CEF1CF049EF1CF074EF1CF00A06D89056
:1038E0000B360C360D360E360DBE79EF1CF07BEF25
:1038F0001CF083EF1CF0020E0A6081EF1CF083EFD6
:103900001CF06EEF1CF00AB088EF1CF08AEF1CF080
:103910008BEF1CF00D9ED8900A320AC005F0066AA3
:10392000076A086A05C008F0076A066A056A055052
:103930000B1206500C1207500D1208500E120950AF
:10394000D8B4A5EF1CF0A7EF1CF0AFEF1CF004BE3D
:10395000AEEF1CF0ACEF1CF0AFEF1CF00E8E0BC006
:1039600001F00CC002F00DC003F00EC004F0120014
:103970000101B351B411D8B4C0EF1CF0C2EF1CF078
:103980007AEF1DF0C69A20EE04F0B351D926B45157
:10399000DA22DFA0CEEF1CF0D0EF1CF0D8EF1CF045
:1039A000B3C1AFF1B4C1B0F104EC20F022EF1DF0CF
:1039B00020EE04F0B351D926B451DA22DFB0E3EFA0
:1039C0001CF0E5EF1CF022EF1DF0C688C69CC69ED9
:1039D000B3C180F0B4C181F0D2EC2CF0F6EF1CF052
:1039E000C59E1AEF1DF0C58E1AEF1DF0010120EEE5
:1039F00004F0B351D926B451DA22DFB602EF1DF03C
:103A000005EF1DF0010E06EF1DF0000EB56FB66B51
:103A1000B651000AD8B40FEF1DF01AEF1DF0B551E2
:103A2000000AD8B4F0EF1CF0010AD8B4F3EF1CF090
:103A30001AEF1DF020EE03F0B351D926B451DA226B
:103A4000DF50C86E948694882CEF1DF0C79C56EF0B
:103A50001DF0C78C56EF1DF0010120EE04F0B351AC
:103A6000D926B451DA22DFB438EF1DF03BEF1DF058
:103A7000010E3CEF1DF0000EB56FB66BB651000A9B
:103A8000D8B445EF1DF056EF1DF0B551000AD8B47B
:103A900026EF1DF0010AD8B429EF1DF056EF1DF0F6
:103AA000C78E79EF1DF0C79E79EF1DF020EE04F070
:103AB000B351D926B451DA22DFB261EF1DF064EFC1
:103AC0001DF0010E65EF1DF0000EB56FB66BB6511F
:103AD000000AD8B46EEF1DF079EF1DF0B551000A61
:103AE000D8B453EF1DF0010AD8B450EF1DF079EFB0
:103AF0001DF0C68A12009FC1BBF0A0C1BCF0A1C1DD
:103B0000BDF0A2C1BEF0A3C1B7F0A4C1B8F0A5C179
:103B1000B9F0A6C1BAF069EC2BF0B7C092F0B8C00A
:103B200093F0B9C094F0BAC095F0A7C1BBF0A8C19A
:103B3000BCF0A9C1BDF0AAC1BEF0ABC1B7F0ACC129
:103B4000B8F0ADC1B9F0AEC1BAF069EC2BF0B7C0B6
:103B5000C3F0B8C0C4F0B9C0C5F0BAC0C6F09BC1CC
:103B6000BBF09CC1BCF09DC1BDF09EC1BEF0A3C125
:103B7000B7F0A4C1B8F0A5C1B9F0A6C1BAF069EC1C
:103B80002BF0B7C0BFF0B8C0C0F0B9C0C1F0BAC028
:103B9000C2F0B4EC11F0BFC08EF0C0C08FF0C1C055
:103BA00090F0C2C091F0CAEC13F08EC0E0F08FC06C
:103BB000E1F090C0E2F091C0E3F0ABC1BBF0ACC16A
:103BC000BCF0ADC1BDF0AEC1BEF0E0C0B7F0E1C029
:103BD000B8F0E2C0B9F0E3C0BAF069EC2BF0B7C0BE
:103BE000D8F0B8C0D9F0B9C0DAF0BAC0DBF0D2EC86
:103BF0002BF0D8C0DCF0D9C0DDF0DAC0DEF0DBC0DD
:103C0000DFF0DCC09BF1DDC09CF1DEC09DF1DFC0C8
:103C10009EF112000001E635E735ED6FED51D8A4B5
:103C200014EF1EF016EF1EF020EF1EF0000EE46FF2
:103C3000000EE56F000EE66F000EE76F8DEF1EF0D1
:103C4000E4C0E8F0E5C0E9F0E6C0EAF0E7C0EBF078
:103C5000200E30EF1EF0D890EB33EA33E933E8332F
:103C6000E82E2BEF1EF0E851EC6FE68FFF0EE41705
:103C7000FF0EE517FF0EE617000EE717960EED5F35
:103C8000EDBF47EF1EF045EF1EF05DEF1EF0ED516A
:103C9000800A970FD8B04FEF1EF051EF1EF053EF90
:103CA0001EF016EF1EF0D890E733E633E533E43329
:103CB000ED3F53EF1EF075EF1EF01F0EED6563EF45
:103CC0001EF065EF1EF06DEF1EF016EF1EF0D8909F
:103CD000E437E537E637E737ED07ED51D8A473EF62
:103CE0001EF075EF1EF067EF1EF0EC51D8B47BEFBD
:103CF0001EF07DEF1EF085EF1EF0E71FE61FE51FAB
:103D0000E46D000EE523E623E723E4C0E4F0E5C01C
:103D1000E5F0E6C0E6F0E7C0E7F012001B341C3423
:103D2000226E2250D8A497EF1EF099EF1EF0A3EF59
:103D30001EF0000E196E000E1A6E000E1B6E000EA5
:103D40001C6E10EF1FF019C01DF01AC01EF01BC032
:103D50001FF01CC020F0200EB3EF1EF0D8902032D0
:103D60001F321E321D32E82EAEEF1EF01D50216EA6
:103D70001B8EFF0E1916FF0E1A16FF0E1B16000ED5
:103D80001C16960E225E22BECAEF1EF0C8EF1EF071
:103D9000E0EF1EF02250800A970FD8B0D2EF1EF04D
:103DA000D4EF1EF0D6EF1EF099EF1EF0D8901C3223
:103DB0001B321A321932223ED6EF1EF0F8EF1EF0F7
:103DC0001F0E2264E6EF1EF0E8EF1EF0F0EF1EF08B
:103DD00099EF1EF0D89019361A361B361C3622067B
:103DE0002250D8A4F6EF1EF0F8EF1EF0EAEF1EF016
:103DF0002150D8B4FEEF1EF000EF1FF008EF1FF0C7
:103E00001C1E1B1E1A1E196C000E1A221B221C22BD
:103E100019C019F01AC01AF01BC01BF01CC01CF00E
:103E20001200380E00018C6F040E8D6F010E8E6F24
:103E300019EC26F0380E0001916F040E926F010EFE
:103E4000936F3B0E946F9451D8A4100E956FA3EC12
:103E50002CF0380E00018C6F040E8D6F050E8E6FE6
:103E600019EC26F000019651D96EDA6A9651E16E8E
:103E7000E26A010EE126DE50E65CD8B042EF1FF0A8
:103E800044EF1FF073EF1FF0000E806F010E816F83
:103E9000000E64EC22F0010E0001806F000E816FB5
:103EA000000E64EC22F0380E0001916F040E926F48
:103EB000050E936F360E946F9451D8A4100E956F23
:103EC000A3EC2CF0380E0001916F040E926F050EDA
:103ED000936F4B0E946F9451D8A4100E956FA3EC72
:103EE0002CF091EF1FF0000E806F000E816F000E1E
:103EF00064EC22F0010E0001806F000E816F000E55
:103F000064EC22F0380E0001916F040E926F050EE2
:103F1000936F440E946F9451D8A4100E956FA3EC38
:103F20002CF0120000018C518D11D8B49AEF1FF0C3
:103F30009CEF1FF003EF20F0E0EF1FF08CC080F04B
:103F40008DC081F01FEC2BF003EF20F08CC088F0C7
:103F50008DC089F039EC18F003EF20F08CC0D9FF48
:103F60008DC0DAFFDF508E6F8F6B8F51000AD8B48F
:103F7000BCEF1FF003EF20F08E51000AD8B49EEF83
:103F80001FF0010AD8B4A6EF1FF003EF20F08CC099
:103F9000D9FF8DC0DAFFDF508E6F8F6B8F51000A13
:103FA000D8B4D5EF1FF003EF20F08E51000AD8B43B
:103FB0009EEF1FF0010AD8B4A6EF1FF003EF20F028
:103FC00020EE02F08C51D9268D51DA22DFB0EBEFD2
:103FD0001FF0EEEF1FF0010EEFEF1FF0000E8E6FDF
:103FE0008F6B8F51000AD8B4F8EF1FF003EF20F069
:103FF0008E51000AD8B4AEEF1FF0010AD8B4C7EF53
:104000001FF003EF20F01200010120EE02F0AF518B
:10401000D926B051DA22DF50B16FC650B119F00B7A
:10402000B119C66E5AEF20F0000E0001AB6F000E02
:10403000AC6F800EAD6FBF0EAE6FAFC1D9FFB0C118
:10404000DAFFDECFB1F1DDCFB2F1B1C180F0B2C1A4
:1040500081F0826B836B000E02EC1BF080C092F04B
:1040600081C093F082C094F083C095F0000E0001EF
:104070008E6F240E8F6FF40E906F490E916FCAEC05
:1040800013F08EC0A7F08FC0A8F090C0A9F091C027
:10409000AAF0C3EC0AF0A7C0E4F0A8C0E5F0A9C0FC
:1040A000E6F0AAC0E7F00AEC1EF00001E451C86E89
:1040B00075EF20F020EE02F0AF51D926B051DA2290
:1040C000DF50B16FB26BB251000AD8B46AEF20F082
:1040D00075EF20F0B151080AD8B414EF20F0030AAC
:1040E000D8B475EF20F075EF20F012000F0EC1125A
:1040F000000E0001806F000E816F000E04EC22F0B4
:10410000010E0001806F000E816F000E04EC22F0A2
:10411000000E0001806F030E3BEC28F0980E0001AA
:10412000886F010E896F8AEC24F0FD0E0001886F04
:10413000896B8AEC24F0FA0E0001886F896B8AEC97
:1041400024F0F70E0001886F896B8AEC24F0F40EDE
:104150000001886F896B8AEC24F0F10E0001886FF2
:10416000896B8AEC24F0EE0E0001886F896B8AEC73
:1041700024F0460E0001886F896B8AEC24F0430E10
:104180000001886F896B8AEC24F017EC2DF0B4ECF9
:104190002CF0380E00018C6F17EC1AF07F0E010125
:1041A000BB6F010EBC6F3DEC29F0900E0101B36FA7
:1041B000010EB46FB8EC1CF01200000E0001856F08
:1041C00083BFE7EF20F0E5EF20F0EDEF20F0826D08
:1041D000831FD8B0832B010E856F81BFF4EF20F0D1
:1041E000F2EF20F0FAEF20F0806D811FD8B0812B24
:1041F000010E851B000E876F000E866F82518311A2
:10420000D8B405EF21F007EF21F02FEF21F0010ED8
:10421000846F0FEF21F0D89082378337842B83AFE0
:1042200014EF21F016EF21F00BEF21F0D890863734
:1042300087378251805D83518159D8A022EF21F0C8
:1042400024EF21F029EF21F08251805F8351815BBF
:104250008681D89083338233842F16EF21F08551E5
:10426000D8B435EF21F037EF21F03BEF21F0866D28
:10427000871FD8B0872B86C080F087C081F01200DE
:1042800000018851D96EDA6A030ED926DF30E83290
:10429000E832070B806F8951010B816F8851D96E0D
:1042A000DA6A030ED926DF50070B64EC22F0000116
:1042B0008851D96EDA6A040ED926DF30E832E83246
:1042C000070B806FD8908931010B816F8851D96EAF
:1042D000DA6A040ED926DF50070B64EC22F00001E5
:1042E0008851D96EDA6A050ED926DF30E832E83215
:1042F000070B806F8941E8423F0B010B816F8851AA
:10430000D96EDA6A050ED926DF50070B64EC22F06D
:1043100000018851D96EDA6A060ED926DF30E832FC
:10432000E832070B806F8939E8461F0B010B816F5C
:104330008851D96EDA6A060ED926DF50070B64EC75
:1043400022F012005C2A950E016E010E026E000E24
:10435000046E000E036EE1EC2CF05C04D8A4B3EF05
:1043600021F0B5EF21F0C5EF21F08B0E236E010E89
:10437000246E31C025F032C026F0B6EC27F0BD50D7
:10438000F00B0909BD6E03EF22F0020E5C18D8A4F1
:10439000CCEF21F0CEEF21F003EF22F08B0E236E55
:1043A000010E246E31C001F032C002F0036A046ACB
:1043B000000EDEEC1BF001C015F002C016F003C0C9
:1043C00017F004C018F0000E116E400E126E1C0E95
:1043D000136E470E146E8DEC2BF011C019F012C045
:1043E0001AF013C01BF014C01CF08EEC1EF019C0A4
:1043F00025F01AC026F0B6EC27F0BD50F00B0809E6
:10440000BD6E000E5C6E12000001876F4DEF22F052
:1044100080C082F0010E836F822B11EF22F0D890C2
:104420008337822F0FEF22F000018751020D750EA6
:10443000F324D96E010EF420DA6EDECF84F0DDCFE6
:1044400085F084C0D9FF85C0DAFF8351DF1263EFA6
:1044500022F080C082F0010E836F822B32EF22F0B7
:10446000D8908337822F30EF22F000018351FF0A6A
:10447000846F8751020D750EF324D96E010EF4205E
:10448000DA6EDECF85F0DDCF86F085C0D9FF86C03D
:10449000DAFF8451DF1663EF22F000018151826F51
:1044A000836B8351000AD8B458EF22F063EF22F0F7
:1044B0008251000AD8B429EF22F0010AD8B408EFDB
:1044C00022F063EF22F012000001876FADEF22F0BF
:1044D00080C082F0010E836F822B71EF22F0D890A2
:1044E0008337822F6FEF22F000018751020D6B0E90
:1044F000F324D96E010EF420DA6EDECF84F0DDCF26
:1045000085F084C0D9FF85C0DAFF8351DF12C3EF85
:1045100022F080C082F0010E836F822B92EF22F096
:10452000D8908337822F90EF22F000018351FF0A49
:10453000846F8751020D6B0EF324D96E010EF420A7
:10454000DA6EDECF85F0DDCF86F085C0D9FF86C07C
:10455000DAFF8451DF16C3EF22F000018151826F30
:10456000836B8351000AD8B4B8EF22F0C3EF22F076
:104570008251000AD8B489EF22F0010AD8B468EF5A
:1045800022F0C3EF22F0120076EC20F05E04D8A4F3
:10459000CCEF22F0CEEF22F0D7EF22F03F0E000159
:1045A000BC6F380EBD6F98EC15F0F5EF22F0380EA9
:1045B0000001916F010E926F010E936F0F0E946FB9
:1045C0009451D8A4100E956FA3EC2CF0380E000176
:1045D000916F020E926F010E936F010E946F9451C2
:1045E000D8A4100E956FA3EC2CF03F0E0001816F44
:1045F000EFEC2BF05E50D8A400EF23F002EF23F095
:1046000009EF23F0380E00018A6F010E8B6F80ECEA
:104610002AF0010E5E6E3F0E0001966F11EC1FF046
:104620003F0E0101B06FD2EC2AF03F0E00018C6FFB
:1046300050EC2AF03F0E00018C6F84EC0FF0C6EFB7
:1046400022F007EF00F0086E69EF23F001C003F0DD
:10465000010E046E032A2FEF23F0D8900436032EA8
:104660002DEF23F00850020D6B0EF324D96E010ECE
:10467000F420DA6EDECF05F0DDCF06F005C0D9FFFD
:1046800006C0DAFF0450DF127EEF23F001C003F012
:10469000010E046E032A4FEF23F0D8900436032E48
:1046A0004DEF23F00450FF0A056E0850020D6B0E0B
:1046B000F324D96E010EF420DA6EDECF06F0DDCFE2
:1046C00007F006C0D9FF07C0DAFF0550DF167EEFFE
:1046D00023F00250036E046A0450000AD8B473EF4A
:1046E00023F07EEF23F00350000AD8B446EF23F006
:1046F000010AD8B426EF23F07EEF23F01200000168
:1047000080518111D8B487EF23F089EF23F0D9EFDE
:1047100023F0B8EF23F0B18294EF23F0B184D9EF06
:1047200023F0B194D9EF23F080C0D9FF81C0DAFF24
:10473000DFB69DEF23F0A0EF23F0010EA1EF23F0F1
:10474000000E826F836B8351000AD8B4AAEF23F066
:10475000D9EF23F08251000AD8B491EF23F0010A77
:10476000D8B48EEF23F0D9EF23F0B192D9EF23F034
:1047700080C0D9FF81C0DAFFDFB8C1EF23F0C4EFFA
:1047800023F0010EC5EF23F0000E826F836B83517F
:10479000000AD8B4CEEF23F0D9EF23F08251000AFB
:1047A000D8B4B5EF23F0010AD8B48BEF23F0D9EFDA
:1047B00023F01200000E0001856F81BFE4EF23F0AB
:1047C000E2EF23F0EAEF23F0806D811FD8B0812B58
:1047D000010E856F83BFF1EF23F0EFEF23F0F5EFCC
:1047E00023F0826D831FD8B0832B82518311D8B4FC
:1047F000FCEF23F0FEEF23F022EF24F0010E846F94
:1048000006EF24F0D89082378337842B83AF0BEFE9
:1048100024F00DEF24F002EF24F08251805D8351EB
:104820008159D8A016EF24F018EF24F01CEF24F0E3
:104830008251805F8351815BD89083338233842F90
:104840000DEF24F08551D8B428EF24F02AEF24F09E
:104850002EEF24F0806D811FD8B0812B80C080F0B6
:1048600081C081F01200000180518111D8B43BEF6A
:1048700024F03DEF24F089EF24F064EF24F09E9AB9
:1048800020EE06F08051D9268151DA22DECF49F0A0
:10489000DDCF4AF020EE08F08051D9268151DA228E
:1048A000DECF42F1DDCF43F120EE0AF08051D92670
:1048B0008151DA22DECF40F1DDCF41F19D8A87EFD1
:1048C00024F09D9A87EF24F020EE04F08051D92641
:1048D0008151DA22DFB46FEF24F072EF24F0010E81
:1048E00073EF24F0000E826F836B8351000AD8B4FB
:1048F0007CEF24F087EF24F08251000AD8B461EFF6
:1049000024F0010AD8B43FEF24F087EF24F017EC2D
:104910002DF01200000120EE01F08851D9268951B6
:10492000DA22DF50806F000E816F88C0D9FF89C006
:10493000DAFFDF5004EC22F0C4EF24F020EE01F0A7
:104940008851D9268951DA22DF50806F010E816F9C
:1049500088C0D9FF89C0DAFFDF5064EC22F0E0EFB5
:1049600024F020EE01F08851D9268951DA22DF5057
:10497000806F000E816F88C0D9FF89C0DAFFDF50D9
:1049800064EC22F0E0EF24F0000120EE02F0885108
:10499000D9268951DA22DF508A6F8B6B8B51000A3E
:1049A000D8B4D5EF24F0E0EF24F08A51000AD8B44F
:1049B000B1EF24F0010AD8B49EEF24F0E0EF24F028
:1049C000120000018251D8B4E8EF24F0EAEF24F09D
:1049D000F2EF24F08251D8A4F0EF24F0F2EF24F0AB
:1049E000F7EF24F080511CEC2DF036EF25F08251CA
:1049F000D96EDA6A0A0ED926DE50DE10D8B403EF7B
:104A000025F005EF25F01EEF25F08251D96EDA6A08
:104A10000A0ED9268251E16EE26A030EE126DE50CB
:104A2000E65CE650800A876FDE50800A8759D8B06E
:104A30001CEF25F01EEF25F036EF25F08251D96EE0
:104A4000DA6A030ED926DF50836F8251D96EDA6A93
:104A5000DF508325D96EDA6A80C0DFFF8251D96EBC
:104A6000DA6A030ED926DE2A000EDD22120020EEBD
:104A7000B5F0050EDE6AE806FDE220EEAFF0050EA9
:104A8000DE6AE806FDE2000E0001BB6FB50E806F26
:104A9000000E826F200E816F000E846F050E836FF3
:104AA0005DEC2CF0000E0001BA6FAF0E996F480E4E
:104AB0009A6FABC09BF0ACC09CF00BEC2CF06CEF91
:104AC00025F0BB51AF0FD96EDA6ABB51B50FE16E5D
:104AD000E26ADFCFE7FFBB2B0001BB51AF0FD96EFE
:104AE000DA6ADF50D8A477EF25F079EF25F061EF8F
:104AF00025F0AAC091F0ADC092F0AEC093F0B50E13
:104B0000946F956BA3EC2CF012000600FACF2BF0FB
:104B1000FBCF2CF0D9CF2DF0DACF2EF0F3CF2FF042
:104B2000F4CF30F0F2AA97EF25F099EF25F0A2EF3D
:104B300025F0F2A49EEF25F0A0EF25F0A2EF25F0DE
:104B400011EC2DF09DAAA7EF25F0A9EF25F0B2EF0B
:104B500025F09EAAAEEF25F0B0EF25F0B2EF25F0DC
:104B60008DEC2CF09DA4B7EF25F0B9EF25F0C2EF46
:104B700025F09EA4BEEF25F0C0EF25F0C2EF25F092
:104B800076EC2CF030C0F4FF2FC0F3FF2EC0DAFF1C
:104B90002DC0D9FF2CC0FBFF2BC0FAFF6092110083
:104BA000C6BCD5EF25F0D7EF25F0DEEF25F0C6AE79
:104BB000DCEF25F0DEEF25F0E2EF25F0C950C69CD2
:104BC000C69EC6889EA6E7EF25F0E9EF25F0E2EF46
:104BD00025F09E96C698C6BCF0EF25F0F2EF25F0C2
:104BE000F9EF25F0C6AEF7EF25F0F9EF25F0FDEF70
:104BF00025F0C950C69CC69EC688C7B402EF26F0F1
:104C000004EF26F00CEF26F0C7BA09EF26F00BEF01
:104C100026F00CEF26F0C950C7A011EF26F013EFD5
:104C200026F00CEF26F0C9CF80F0C6880001805135
:104C3000120000018E0741EF26F08CC08AF08E51E1
:104C4000800F8B6F80EC2AF05EEF26F08CC08AF02C
:104C50008E51C00F8B6F80EC2AF05EEF26F08CC077
:104C60008AF08E51940F8B6F80EC2AF05EEF26F065
:104C70008CC08AF08E51D40F8B6F80EC2AF05EEFDF
:104C800026F08D518F6F906B9051000AD8B44BEF86
:104C900026F05EEF26F08F51010AD8B41DEF26F002
:104CA000030AD8B426EF26F0010AD8B42FEF26F075
:104CB000070AD8B438EF26F05EEF26F0120087EF2F
:104CC00026F020EE01F08851D9268951DA22DF50F2
:104CD000806F000E816F88C0D9FF89C0DAFFDF5076
:104CE00064EC22F0A3EF26F020EE01F08851D926E3
:104CF0008951DA22DF50806F010E816F88C0D9FFA1
:104D000089C0DAFFDF5064EC22F0A3EF26F0000147
:104D100020EE02F08851D9268951DA22DF508A6FBD
:104D20008B6B8B51000AD8B498EF26F0A3EF26F0D6
:104D30008A51000AD8B474EF26F0010AD8B461EFA2
:104D400026F0A3EF26F01200CCEF26F020EE01F0C3
:104D50008851D9268951DA22DF50806F010E816F88
:104D600088C0D9FF89C0DAFFDF5064EC22F0E8EF99
:104D700026F020EE01F08851D9268951DA22DF5041
:104D8000806F000E816F88C0D9FF89C0DAFFDF50C5
:104D900064EC22F0E8EF26F0000120EE02F08851EA
:104DA000D9268951DA22DF508A6F8B6B8B51000A2A
:104DB000D8B4DDEF26F0E8EF26F08A51000AD8B427
:104DC000B9EF26F0010AD8B4A6EF26F0E8EF26F0F6
:104DD00012000101AF6F000E0101AB6F000EAC6F4E
:104DE0007A0EAD6F450EAE6F000EA76F400EA86F26
:104DF000E70EA96F440EAA6F000EA36F000EA46FFA
:104E0000340EA56F430EA66F000E9F6F000EA06FAD
:104E1000000EA16F000EA26FAF510001806F816B79
:104E2000826B836B000E02EC1BF080C09BF181C093
:104E30009CF182C09DF183C09EF17BEC1DF09BC173
:104E4000E4F09CC1E5F09DC1E6F09EC1E7F00AECFC
:104E50001EF0E4C031F0E5C032F0120056EF27F04A
:104E600020EE01F00950D9260A50DA22DF50016EF7
:104E7000000E026E09C0D9FF0AC0DAFFDF5023EC32
:104E800023F071EF27F020EE01F00950D9260A50E7
:104E9000DA22DF50016E010E026E09C0D9FF0AC08E
:104EA000DAFFDF5023EC23F071EF27F020EE02F061
:104EB0000950D9260A50DA22DF500B6E0C6A0C50CA
:104EC000000AD8B466EF27F071EF27F00B50000A04
:104ED000D8B443EF27F0010AD8B430EF27F071EFD0
:104EE00027F012009AEF27F020EE01F00950D926A2
:104EF0000A50DA22DF50016E010E026E09C0D9FF9E
:104F00000AC0DAFFDF5023EC23F0B5EF27F020EEE4
:104F100001F00950D9260A50DA22DF50016E000E46
:104F2000026E09C0D9FF0AC0DAFFDF5023EC23F07C
:104F3000B5EF27F020EE02F00950D9260A50DA2208
:104F4000DF500B6E0C6A0C50000AD8B4AAEF27F0A1
:104F5000B5EF27F00B50000AD8B487EF27F0010A0D
:104F6000D8B474EF27F0B5EF27F0120023502410C7
:104F7000D8B4BDEF27F0BFEF27F0F8EF27F053C00C
:104F800029F054C02AF025C029F026C02AF0D5EF18
:104F900027F029C0BEFF2AC0BFFFF8EF27F029C0C5
:104FA000BBFF2AC0BCFFF8EF27F020EE02F0235031
:104FB000D9262450DA22DFB0E0EF27F0E3EF27F024
:104FC000010EE4EF27F0000E276E286A2850000A31
:104FD000D8B4EDEF27F0F8EF27F02750000AD8B447
:104FE000C9EF27F0010AD8B4CFEF27F0F8EF27F088
:104FF0001200000180518111D8B401EF28F003EFB5
:1050000028F03AEF28F017EF28F09D949E9417ECC3
:105010002DF0000120EE03F08051D9268151DA22D3
:10502000DECF57F0DDCF58F09D843AEF28F020EE28
:1050300002F08051D9268151DA22DFB022EF28F028
:1050400025EF28F0010E26EF28F0000E826F836B0B
:105050008351000AD8B42FEF28F03AEF28F082519C
:10506000000AD8B405EF28F0010AD8B43AEF28F0C6
:105070003AEF28F012000001836F66EF28F08351A9
:10508000020D750EF324D96E010EF420DA6EDECF18
:1050900081F0DDCF82F081C0D9FF82C0DAFFFF0E40
:1050A000DF6E7CEF28F08351020D750EF324D96E6C
:1050B000010EF420DA6EDECF81F0DDCF82F081C008
:1050C000D9FF82C0DAFFDF6A7CEF28F0000180514F
:1050D000816F826B8251000AD8B471EF28F07CEFA7
:1050E00028F08151000AD8B453EF28F0010AD8B44F
:1050F0003FEF28F07CEF28F01200F40EF66E550E0C
:10510000F76E000EF86E01EE51F010EE4AF0090055
:10511000F5CFEEFFE550E150FAE1100EF66E5A0EB3
:10512000F76E000EF86E00EEEEF010EE12F00900D1
:10513000F5CFEEFFE550E150FAE1F80EF66E590EAC
:10514000F76E000EF86E00EE31F010EE18F0090068
:10515000F5CFEEFFE550E150FAE101EE00F0510E1F
:10516000EE6AE806FDE100EE49F0170EEE6AE80689
:10517000FDE1609060920001C4EF22F000018451D3
:105180008511D8B4C6EF28F0C8EF28F0FEEF28F05C
:10519000B19084C0D9FF85C0DAFFDF50030B866F62
:1051A000863BB1508619CF0B8619B16E84C080F052
:1051B00085C081F07FEC23F084C080F085C081F051
:1051C0001CEC2AF0000120EE01F08451D926855113
:1051D000DA22DECF4BF0DDCF4CF084C080F085C00A
:1051E00081F04BC082F04CC083F0C3EC2CF084C043
:1051F00080F085C081F01BEC2DF0B1801200000121
:1052000084518511D8B407EF29F009EF29F03CEF5C
:1052100029F084C080F085C081F033EC24F017EFD2
:1052200029F0AB8C3BEF29F0AB9C3BEF29F0000160
:1052300020EE04F08451D9268551DA22DFB223EF23
:1052400029F026EF29F0010E27EF29F0000E866FD6
:10525000876B8751000AD8B430EF29F03BEF29F073
:105260008651000AD8B414EF29F0010AD8B411EF1E
:1052700029F03BEF29F0AB8812000101BB51BC11B2
:10528000D8B445EF29F047EF29F079EF29F0948C55
:10529000948EAB9EBBC1AFF1BCC1B0F128EC08F05D
:1052A000010120EE03F0BB51D926BC51DA22DFA068
:1052B0005CEF29F05EEF29F064EF29F0BBC180F0CC
:1052C000BCC181F07AEC29F0010120EE04F0BB5161
:1052D000D926BC51DA22DFA070EF29F072EF29F055
:1052E00078EF29F0BBC184F0BCC185F0FFEC28F059
:1052F000AB8E1200000180518111D8B482EF29F0E9
:1053000084EF29F0B0EF29F08CEF29F0AC8CAFEFEF
:1053100029F0AC9CAFEF29F020EE03F08051D926A4
:105320008151DA22DFB297EF29F09AEF29F0010ECE
:105330009BEF29F0000E826F836B8351000AD8B473
:10534000A4EF29F0AFEF29F08251000AD8B489EF19
:1053500029F0010AD8B486EF29F0AFEF29F0AC8A22
:105360001200CDEF29F08CC08AF08DC0F6FF8EC000
:10537000F7FF000EF86E0F0EF76403D00800F5502B
:1053800005D0F6CFE9FFF7CFEAFFEF5000018B6FB2
:10539000A9EC2AF000018D4B8E2B8DC0F6FF8EC03C
:1053A000F7FF000EF86E0F0EF76403D00800F550FB
:1053B00005D0F6CFE9FFF7CFEAFFEF500009D8A4F8
:1053C000E4EF29F0E6EF29F0B3EF29F01200000135
:1053D0008851D96EDA6A020ED926DF30E832E83217
:1053E000070B806F010E816F8851D96EDA6A020E49
:1053F000D926DF50070B64EC22F0060EE82EFED70C
:1054000000D000018851D96EDA6A020ED926DF3049
:10541000E832E832070B806F000E816F8851D96E39
:10542000DA6A020ED926DF50070B64EC22F0060E72
:10543000E82EFED700D01200000180518111D8B4AF
:1054400024EF2AF026EF2AF04FEF2AF02EEF2AF071
:10545000B18E4FEF2AF0B19E4FEF2AF080C0D9FFF6
:1054600081C0DAFFDFB437EF2AF03AEF2AF0010EFD
:105470003BEF2AF0000E826F836B8351000AD8B491
:1054800044EF2AF04FEF2AF08251000AD8B42BEFF4
:105490002AF0010AD8B428EF2AF04FEF2AF01200C0
:1054A00000018C51D96EDA6A020ED926DF30E8325B
:1054B000030BE806D8A45FEF2AF061EF2AF069EF4A
:1054C0002AF0980E886F010E896F5FEC26F07FEF4F
:1054D0002AF08C51D96EDA6A020ED926DF30E83212
:1054E000030B020AD8A477EF2AF079EF2AF07FEFB6
:1054F0002AF0980E886F010E896FA4EC26F0120036
:1055000000018A51D96EDA6ADF30E832E832070BDF
:10551000806F000E816F8A51D96EDA6ADF50070BF7
:1055200064EC22F08AC088F000018B390F0B896F80
:1055300040EC21F08AC088F0E7EC29F08AC088F0BE
:105540008BC089F040EC21F08AC088F0E7EC29F0AC
:10555000120000018A51D96EDA6ADF30E832E8328F
:10556000070B806F010E816F8A51D96EDA6ADF50A6
:10557000070B64EC22F08AC088F000018B390F0B16
:10558000896F40EC21F08AC088F0E7EC29F08AC0EE
:1055900088F08BC089F040EC21F08AC088F0E7ECFD
:1055A00029F012000101B051D96EDA6A020ED92633
:1055B000DF50030BE806D8A4E0EF2AF0E2EF2AF070
:1055C000E7EF2AF0640EE9EC26F0F9EF2AF0B0518B
:1055D000D96EDA6A020ED926DF50030B020AD8A46C
:1055E000F4EF2AF0F6EF2AF0F9EF2AF0000EE9ECDA
:1055F00026F012000708092F0405062A0102032DD0
:1056000063003D2B800F810F820F830F840F890F62
:105610008A0F8B0F8C0F8D0F920F930F940F950F96
:10562000960F802500000500782E0000000001087C
:1056300004444300000630020C0000000201000197
:1056400020EE02F08051D9268151DA22DFB02BEF13
:105650002BF02EEF2BF0010E2FEF2BF0000E826FB0
:10566000836B8351000AD8B438EF2BF043EF2BF053
:105670008251000AD8B443EF2BF0010AD8B443EFAB
:105680002BF043EF2BF012000001856F80C081F0FA
:1056900000018551020D610EF324D96E010EF42034
:1056A000DA6EDECF82F0DDCF83F082C0D9FF83C017
:1056B000DAFFDF50846F812B60EF2BF0D8908433BA
:1056C000812F5EEF2BF000018451010B866F865114
:1056D0001200000E0001BB1B000EBC1B000EBD1B08
:1056E000800EBE1BB7C0A7F0B8C0A8F0B9C0A9F023
:1056F000BAC0AAF0BBC0ABF0BCC0ACF0BDC0ADF04E
:10570000BEC0AEF0C3EC0AF0A7C0B7F0A8C0B8F0B6
:10571000A9C0B9F0AAC0BAF01200000E151A000E06
:10572000161A000E171A800E181A11C001F012C0B6
:1057300002F013C003F014C004F015C005F016C049
:1057400006F017C007F018C008F024EC0DF001C0F7
:1057500011F002C012F003C013F004C014F01200E4
:1057600096C098F0BDEF2BF095C08AF0980E00011E
:105770008B6F97C08CF02AEC19F098C0F6FF100ED2
:10578000F76EF86A0800F5500009D8A4CAEF2BF0AC
:10579000CCEF2BF0B4EF2BF0000E0001966F000E53
:1057A000956F12000001D851D911DA11DB11D8B46C
:1057B000DCEF2BF0DEEF2BF0E6EF2BF0000ED81B2A
:1057C000000ED91B000EDA1B800EDB1BD8C0D8F0F0
:1057D000D9C0D9F0DAC0DAF0DBC0DBF01200000E7D
:1057E0000001826F040E826F000E836F01EF2CF0B8
:1057F00081518325D96EDA6AD0EC25F0DF6E000185
:10580000832B8351825DD8B008EF2CF00AEF2CF087
:10581000F8EF2BF012009B0E00019D6F99C09EF0D7
:10582000000EA26F000EA16F000EA96F000EA86FF0
:105830009E0E956F9AC096F09D0E976FB0EC2BF070
:1058400000019951A125D96EDA6ADF6A12000001C0
:1058500090519111D8B42FEF2CF031EF2CF041EF93
:105860002CF0F00EBD16F00EBA1690C08CF091C060
:105870008DF092EC1FF090C080F091C081F0F9ECB7
:1058800027F01200000187BF48EF2CF04AEF2CF000
:1058900050EF2CF086C086F087C087F05CEF2CF0CC
:1058A00086C088F087C089F0881F891F884B892BA4
:1058B00088C086F089C087F0120080C085F067EF4D
:1058C0002CF08551D96EDA6A81C0DFFF852B00018B
:1058D0008307D8A08407832906E18429D8A473EF1D
:1058E0002CF075EF2CF061EF2CF012009E945750C5
:1058F0005810D8B47EEF2CF080EF2CF08CEF2CF009
:1059000002D88CEF2CF00500FA6E5750FD6E5850FF
:10591000FE6EFF6AFA501200120049504A10D8B4C5
:1059200094EF2CF096EF2CF0A2EF2CF002D8A2EF1F
:105930002CF00500FA6E4950FD6E4A50FE6EFF6A6B
:10594000FA501200120091C08CF092C08DF093C0FA
:105950008EF019EC26F091C08CF094C08DF095C0BB
:105960008EF0B1EC29F012008B0E0001906F010E49
:10597000916F27EC2CF0950E0001846F010E856F5E
:10598000BEEC28F01200000180518111D8B4CBEF99
:105990002CF0CDEF2CF0D1EF2CF08351B36E82C000
:1059A000B2FF1200000120EE02F08051D926815191
:1059B000DA22DF50826FC6508219F00B8219C66E50
:1059C000120001500210D8B4E8EF2CF0EAEF2CF0EE
:1059D000EEEF2CF00450B36E03C0B2FF1200000EC5
:1059E000016E9EAAF6EF2CF0F8EF2CF0FAEF2CF0F7
:1059F000AECF01F0015012000807010101010F01B3
:105A00000911212931390000080F0307010306019C
:105A10000305010304010303010302010301010360
:105A20000001F2945050D76E4FC0D6FF1200D09EA6
:0A5A3000F28EF28C12001200120038
:020000040030CA
:0E000000FF02191EFF0180FF0FC00FE00F402E
:00000001FF
